{
    "structarray_alloc" : {
        "_info" : {
            "comment" : "",
            "filling-rpc-server" : "evm version 1.10.25-stable-69568c55",
            "filling-tool-version" : "retesteth-0.2.2-testinfo+commit.766b4629.Linux.g++",
            "generatedTestHash" : "0b04ffa1b5bf9654d39d45e4ffbea211b45543d991f4d89a8c7b504507934760",
            "labels" : {
                "0" : "nfts_rank"
            },
            "lllcversion" : "Error getting LLLC Version",
            "solidity" : "Error getting solc Version",
            "source" : "tmp/main/structarray_allocFiller.yml",
            "sourceHash" : "91cfd0882232416ff6d23079ff210106c9835bca3ffd62319baf7acc26c9bdd2"
        },
        "env" : {
            "currentBaseFee" : "0x01",
            "currentCoinbase" : "0xa94f5374fce5edbc8e2a8697c15331677e6ebf0b",
            "currentDifficulty" : "0x01",
            "currentGasLimit" : "0x3b9aca00",
            "currentNumber" : "0x01",
            "currentRandom" : "0x0000000000000000000000000000000000000000000000000000000000000001",
            "currentTimestamp" : "0x61a8d289",
            "previousHash" : "0x5e20a0453cecd065ea59c37ac63e079ee08998b6045136a8ce6635c7912ec0b6"
        },
        "post" : {
            "London" : [
                {
                    "hash" : "0x2eda8271e8ba1666b769f3a58a154e129a1315cad1da1aef4a2f43002b0fe1b2",
                    "indexes" : {
                        "data" : 0,
                        "gas" : 0,
                        "value" : 0
                    },
                    "logs" : "0x1dcc4de8dec75d7aab85b567b6ccd41ad312451b948a7413f0a142fd40d49347",
                    "txbytes" : "0xf8858001843b9aca0094be7c43a58000000000000000000000000000000180a48acc538e0000000000000000000000000000000000000000000000000000000000000d051ba08e4526711fa8fbfc74174cf35c001c70e530fa53b424bcdcaceb689859096a44a02504289896577b242fec7a167776776cb8760678edf8005802f1798c9f7c57a4"
                }
            ]
        },
        "pre" : {
            "0xa94f5374fce5edbc8e2a8697c15331677e6ebf0b" : {
                "balance" : "0x3b9aca00",
                "code" : "0x",
                "nonce" : "0x00",
                "storage" : {
                }
            },
            "0xbe7c43a580000000000000000000000000000001" : {
                "balance" : "0x00",
                "code" : "0x608060405234801561001057600080fd5b506004361061002b5760003560e01c80638acc538e14610030575b600080fd5b61004a60048036038101906100459190610134565b610060565b6040516100579190610170565b60405180910390f35b6000808267ffffffffffffffff81111561007d5761007c61018b565b5b6040519080825280602002602001820160405280156100b657816020015b6100a36100c3565b81526020019060019003908161009b5790505b5090508051915050919050565b6040518060c001604052806000815260200160008152602001600081526020016000815260200160008152602001600081525090565b600080fd5b6000819050919050565b610111816100fe565b811461011c57600080fd5b50565b60008135905061012e81610108565b92915050565b60006020828403121561014a576101496100f9565b5b60006101588482850161011f565b91505092915050565b61016a816100fe565b82525050565b60006020820190506101856000830184610161565b92915050565b7f4e487b7100000000000000000000000000000000000000000000000000000000600052604160045260246000fdfea26469706673582212203db290c1401aded71126025073dbf6e96da5594af56ce4578db8ac17b429c5ed64736f6c63430008090033",
                "nonce" : "0x00",
                "storage" : {
                }
            }
        },
        "transaction" : {
            "data" : [
                "0x8acc538e0000000000000000000000000000000000000000000000000000000000000d05"
            ],
            "gasLimit" : [
                "0x3b9aca00"
            ],
            "gasPrice" : "0x01",
            "nonce" : "0x00",
            "secretKey" : "0x45a915e4d060149eb4365960e6a7a45f334393093061116b197e3240065ff2d8",
            "sender" : "0xa94f5374fce5edbc8e2a8697c15331677e6ebf0b",
            "to" : "0xbe7c43a580000000000000000000000000000001",
            "value" : [
                "0x00"
            ]
        }
    }
}