{
    "swap_math" : {
        "_info" : {
            "comment" : "",
            "filling-rpc-server" : "evm version 1.10.25-stable-69568c55",
            "filling-tool-version" : "retesteth-0.2.2-testinfo+commit.766b4629.Linux.g++",
            "generatedTestHash" : "3ef3cee7c640b33fafe1b63fac9614d9c624af03507ab398fa1819d9faf09bfa",
            "labels" : {
                "0" : "computeSwapStep_1",
                "1" : "computeSwapStep_2",
                "2" : "computeSwapStep_3",
                "3" : "computeSwapStep_4",
                "4" : "computeSwapStep_5",
                "5" : "computeSwapStep_6",
                "6" : "computeSwapStep_7",
                "7" : "computeSwapStep_8",
                "8" : "computeSwapStep_9"
            },
            "lllcversion" : "Error getting LLLC Version",
            "solidity" : "Error getting solc Version",
            "source" : "tmp/main/swap_mathFiller.yml",
            "sourceHash" : "c346a15510b7db7d24d510e8575ffb346813e60a9116056bf52ee7fb56d57f41"
        },
        "env" : {
            "currentBaseFee" : "0x01",
            "currentCoinbase" : "0xa94f5374fce5edbc8e2a8697c15331677e6ebf0b",
            "currentDifficulty" : "0x01",
            "currentGasLimit" : "0x3b9aca00",
            "currentNumber" : "0x01",
            "currentRandom" : "0x0000000000000000000000000000000000000000000000000000000000000001",
            "currentTimestamp" : "0x61a8d289",
            "previousHash" : "0x5e20a0453cecd065ea59c37ac63e079ee08998b6045136a8ce6635c7912ec0b6"
        },
        "post" : {
            "London" : [
                {
                    "hash" : "0x5695f176dc2a2fb201cadd1c14094cf44057d38a71c5017ff6d82d2aed529267",
                    "indexes" : {
                        "data" : 0,
                        "gas" : 0,
                        "value" : 0
                    },
                    "logs" : "0x1dcc4de8dec75d7aab85b567b6ccd41ad312451b948a7413f0a142fd40d49347",
                    "txbytes" : "0xf901068001843b9aca0094be7c43a58000000000000000000000000000000180b8a4100d3f74000000000000000000000000000000000000000100000000000000000000000000000000000000000000000000000000000000010146dd68287f35899f20af670000000000000000000000000000000000000000000000001bc16d674ec800000000000000000000000000000000000000000000000000000de0b6b3a764000000000000000000000000000000000000000000000000000000000000000002581ba037e464384ab9caf62d723b31c5a08e6dd90f8776673c70009a4e4a8db55419a8a021cb59166e0e476028acf33c46267b33cd9374e9adb71b04173371282152ef07"
                },
                {
                    "hash" : "0xc3320becc61c7ce3768addc107e849402b6acf83ff10f71d312c49f92aad946b",
                    "indexes" : {
                        "data" : 1,
                        "gas" : 0,
                        "value" : 0
                    },
                    "logs" : "0x1dcc4de8dec75d7aab85b567b6ccd41ad312451b948a7413f0a142fd40d49347",
                    "txbytes" : "0xf901068001843b9aca0094be7c43a58000000000000000000000000000000180b8a4100d3f74000000000000000000000000000000000000000100000000000000000000000000000000000000000000000000000000000000010146dd68287f35899f20af670000000000000000000000000000000000000000000000001bc16d674ec80000fffffffffffffffffffffffffffffffffffffffffffffffff21f494c589c000000000000000000000000000000000000000000000000000000000000000002581ca09714ae87d55810759148eae63869146a7cb84cf2176b54980ebc16de3cf51e33a0095c7fa464bce045c994f4cec978dbdd061978af8b1d6a95a3f918d34c03e5f5"
                },
                {
                    "hash" : "0x4dfec24637098e8eae6738127dfdba4079ff2efd76a8501f6aca52fcb3c9ef80",
                    "indexes" : {
                        "data" : 2,
                        "gas" : 0,
                        "value" : 0
                    },
                    "logs" : "0x1dcc4de8dec75d7aab85b567b6ccd41ad312451b948a7413f0a142fd40d49347",
                    "txbytes" : "0xf901068001843b9aca0094be7c43a58000000000000000000000000000000180b8a4100d3f7400000000000000000000000000000000000000010000000000000000000000000000000000000000000000000000000000000003298b075b4b6a5240945790610000000000000000000000000000000000000000000000001bc16d674ec800000000000000000000000000000000000000000000000000000de0b6b3a764000000000000000000000000000000000000000000000000000000000000000002581ba008623eb5249f4b1465f22c79260603188594a7439cb426171a21901342a44e85a031a80ebcb27fc9a82196eac192ba89979063982305715031a51adf2910f2c0af"
                },
                {
                    "hash" : "0x6c2a379be71787a903a60a42105f3faa2450b6a0c78599b2002934254124d0b6",
                    "indexes" : {
                        "data" : 3,
                        "gas" : 0,
                        "value" : 0
                    },
                    "logs" : "0x1dcc4de8dec75d7aab85b567b6ccd41ad312451b948a7413f0a142fd40d49347",
                    "txbytes" : "0xf901068001843b9aca0094be7c43a58000000000000000000000000000000180b8a4100d3f740000000000000000000000000000000000000001000000000000000000000000000000000000000000000000000000000000000a0000000000000000000000000000000000000000000000000000000000000000000000001bc16d674ec80000fffffffffffffffffffffffffffffffffffffffffffffffff21f494c589c000000000000000000000000000000000000000000000000000000000000000002581ba0f9d90a0452817875d937f81dd5e11c4306ecdc839a26752df189d5ef9d80eafba028fdf0552f236c2d349405ead5af32a25344e0fd0776c26af62be964b1938ed2"
                },
                {
                    "hash" : "0x9c5487a321ef0a97b22757ec79c38807f7c12c8a66731615e5237a54ce7d7c6f",
                    "indexes" : {
                        "data" : 4,
                        "gas" : 0,
                        "value" : 0
                    },
                    "logs" : "0x1dcc4de8dec75d7aab85b567b6ccd41ad312451b948a7413f0a142fd40d49347",
                    "txbytes" : "0xf901068001843b9aca0094be7c43a58000000000000000000000000000000180b8a4100d3f74000000000000000000000000000000000000149378ee44981bbfcee879e92bae000000000000000000000000000000000000000004b1c93ebf8a0da5b10b23d4000000000000000000000000000000000000000202ded16393eb492fe5113e27ffffffffffffffffffffffffffffffffffffffffffffffffffffffffffffffff00000000000000000000000000000000000000000000000000000000000000011ba06796b1d5616391f867d04b89f4ef1dc7b619072c96be99e680aac250b50069eea0099c9cbb57a1516cf58114dd98ba772da999ed5e5a1944a038193c19f1170b64"
                },
                {
                    "hash" : "0xeaf650c3a7da8a6f7b8ab51e79256a3dd8dd0ccee0bea25cc6db01a887f00b20",
                    "indexes" : {
                        "data" : 5,
                        "gas" : 0,
                        "value" : 0
                    },
                    "logs" : "0x1dcc4de8dec75d7aab85b567b6ccd41ad312451b948a7413f0a142fd40d49347",
                    "txbytes" : "0xf901068001843b9aca0094be7c43a58000000000000000000000000000000180b8a4100d3f74000000000000000000000000000000000000000000000000000000000000000200000000000000000000000000000000000000000000000000000000000000010000000000000000000000000000000000000000000000000000000000000001000000000000000000000000000000000000c107454e8a609a22ec7487c862b700000000000000000000000000000000000000000000000000000000000000011ca044e1075d1681d93f5bc2b3fffba9e579443973deb15c6496f8ec00c918ede2c5a0079667da6f629f7dce53391cb77837b926b19345d4cd248887f23acaa9d30f1a"
                },
                {
                    "hash" : "0x7fd61476c3ba363ef6944dc37a4384e9af3e8211f2984003de231ac959d9916a",
                    "indexes" : {
                        "data" : 6,
                        "gas" : 0,
                        "value" : 0
                    },
                    "logs" : "0x1dcc4de8dec75d7aab85b567b6ccd41ad312451b948a7413f0a142fd40d49347",
                    "txbytes" : "0xf901068001843b9aca0094be7c43a58000000000000000000000000000000180b8a4100d3f74000000000000000000000000000000000000000000000000000000000000096d000000000000000000000000000000000000000000000000011bd15c65b77e5800000000000000000000000000000000000000190e03e8198ff82e007f9618b2000000000000000000000000000000000000000000000000000000000000000a00000000000000000000000000000000000000000000000000000000000007501ca072d67132805dc1012b699acfb612e4f1d0f50e25ffcb3be1da12f6c0c229febba073f6c8af95b682f10f928bcefd4e992e3a837cce2ebf02e53f7b5aa4593c6af0"
                },
                {
                    "hash" : "0x3a6738a9a38e2f2ee546ff07fd19c0d12d4c35b21ef94aa6132cb112c3447bd4",
                    "indexes" : {
                        "data" : 7,
                        "gas" : 0,
                        "value" : 0
                    },
                    "logs" : "0x1dcc4de8dec75d7aab85b567b6ccd41ad312451b948a7413f0a142fd40d49347",
                    "txbytes" : "0xf901068001843b9aca0094be7c43a58000000000000000000000000000000180b8a4100d3f74000000000000000000000000000000000000010000000000000000000000000000000000000000000000000000000000000001199999999999999999999999990000000000000000000000000000000000000000000000000000000000000400fffffffffffffffffffffffffffffffffffffffffffffffffffffffffffffffc0000000000000000000000000000000000000000000000000000000000000bb81ba035c1ac5b53e996197381d96905ecd184df2013421599ce1e9acec21842883c4aa056fd94a57e323ba704da4fd07e9a4f5d84128124e93b31fdf1727253359c4bd5"
                },
                {
                    "hash" : "0x25981cf19da5b84f2b27531b1e59d5b3bf0658cb9474e248ad6d17437c77bcce",
                    "indexes" : {
                        "data" : 8,
                        "gas" : 0,
                        "value" : 0
                    },
                    "logs" : "0x1dcc4de8dec75d7aab85b567b6ccd41ad312451b948a7413f0a142fd40d49347",
                    "txbytes" : "0xf901068001843b9aca0094be7c43a58000000000000000000000000000000180b8a4100d3f74000000000000000000000000000000000000010000000000000000000000000000000000000000000000000000000000000000e66666666666666666666666660000000000000000000000000000000000000000000000000000000000000400fffffffffffffffffffffffffffffffffffffffffffffffffffffffffffbfca80000000000000000000000000000000000000000000000000000000000000bb81ba06e14fa74a02242227ff28256f3693133dab260e33770e700b098f8a2b492d559a028b5c23cbd1e6e3b16f1fa7df8c71692ad134cbbcab3a80ca565ff9f31196d3b"
                }
            ]
        },
        "pre" : {
            "0xa94f5374fce5edbc8e2a8697c15331677e6ebf0b" : {
                "balance" : "0x3b9aca00",
                "code" : "0x",
                "nonce" : "0x00",
                "storage" : {
                }
            },
            "0xbe7c43a580000000000000000000000000000001" : {
                "balance" : "0x00",
                "code" : "0x608060405234801561001057600080fd5b506004361061002b5760003560e01c8063100d3f7414610030575b600080fd5b610081600480360360a081101561004657600080fd5b5080356001600160a01b039081169160208101359091169060408101356001600160801b0316906060810135906080013562ffffff166100b1565b604080516001600160a01b0390951685526020850193909352838301919091526060830152519081900360800190f35b60008080806001600160a01b03808916908a1610158187128015906101365760006100ea8989620f42400362ffffff16620f42406102a3565b905082610103576100fe8c8c8c6001610353565b610110565b6101108b8d8c60016103ce565b9550858110610121578a9650610130565b61012d8c8b8386610479565b96505b50610180565b8161014d576101488b8b8b60006103ce565b61015a565b61015a8a8c8b6000610353565b935083886000031061016e57899550610180565b61017d8b8a8a600003856104c5565b95505b6001600160a01b038a81169087161482156101e35780801561019f5750815b6101b5576101b0878d8c60016103ce565b6101b7565b855b95508080156101c4575081155b6101da576101d5878d8c6000610353565b6101dc565b845b945061022d565b8080156101ed5750815b610203576101fe8c888c6001610353565b610205565b855b9550808015610212575081155b610228576102238c888c60006103ce565b61022a565b845b94505b8115801561023d57508860000385115b15610249578860000394505b81801561026857508a6001600160a01b0316876001600160a01b031614155b15610277578589039350610294565b610291868962ffffff168a620f42400362ffffff16610511565b93505b50505095509550955095915050565b60008080600019858709868602925082811090839003039050806102d957600084116102ce57600080fd5b50829004905061034c565b8084116102e557600080fd5b6000848688096000868103871696879004966002600389028118808a02820302808a02820302808a02820302808a02820302808a02820302808a02909103029181900381900460010186841190950394909402919094039290920491909117919091029150505b9392505050565b6000836001600160a01b0316856001600160a01b03161115610373579293925b816103a05761039b836001600160801b03168686036001600160a01b0316600160601b6102a3565b6103c3565b6103c3836001600160801b03168686036001600160a01b0316600160601b610511565b90505b949350505050565b6000836001600160a01b0316856001600160a01b031611156103ee579293925b600160601b600160e01b03606084901b166001600160a01b03868603811690871661041857600080fd5b8361044857866001600160a01b031661043b8383896001600160a01b03166102a3565b8161044257fe5b0461046e565b61046e61045f8383896001600160a01b0316610511565b886001600160a01b031661054b565b979650505050505050565b600080856001600160a01b03161161049057600080fd5b6000846001600160801b0316116104a657600080fd5b816104b85761039b8585856001610556565b6103c38585856001610637565b600080856001600160a01b0316116104dc57600080fd5b6000846001600160801b0316116104f257600080fd5b816105045761039b8585856000610637565b6103c38585856000610556565b600061051e8484846102a3565b90506000828061052a57fe5b848609111561034c57600019811061054157600080fd5b6001019392505050565b808204910615150190565b600081156105c95760006001600160a01b0384111561058c5761058784600160601b876001600160801b03166102a3565b6105a4565b6001600160801b038516606085901b816105a257fe5b045b90506105c16105bc6001600160a01b0388168361071a565b610730565b9150506103c6565b60006001600160a01b038411156105f7576105f284600160601b876001600160801b0316610511565b61060e565b61060e606085901b6001600160801b03871661054b565b905080866001600160a01b03161161062557600080fd5b6001600160a01b0386160390506103c6565b6000826106455750836103c6565b600160601b600160e01b03606085901b1682156106d3576001600160a01b0386168481029085828161067357fe5b0414156106a4578181018281106106a25761069883896001600160a01b031683610511565b93505050506103c6565b505b6106ca826106c5878a6001600160a01b031686816106be57fe5b049061071a565b61054b565b925050506103c6565b6001600160a01b038616848102908582816106ea57fe5b041480156106f757508082115b61070057600080fd5b8082036106986105bc846001600160a01b038b1684610511565b8082018281101561072a57600080fd5b92915050565b806001600160a01b038116811461074657600080fd5b91905056fea2646970667358221220bb65d86c3677a48866008eb6782a6fadbf9ba12b33a2e9f96d1e4f488809c1a364736f6c63430007060033",
                "nonce" : "0x00",
                "storage" : {
                }
            }
        },
        "transaction" : {
            "data" : [
                "0x100d3f74000000000000000000000000000000000000000100000000000000000000000000000000000000000000000000000000000000010146dd68287f35899f20af670000000000000000000000000000000000000000000000001bc16d674ec800000000000000000000000000000000000000000000000000000de0b6b3a76400000000000000000000000000000000000000000000000000000000000000000258",
                "0x100d3f74000000000000000000000000000000000000000100000000000000000000000000000000000000000000000000000000000000010146dd68287f35899f20af670000000000000000000000000000000000000000000000001bc16d674ec80000fffffffffffffffffffffffffffffffffffffffffffffffff21f494c589c00000000000000000000000000000000000000000000000000000000000000000258",
                "0x100d3f7400000000000000000000000000000000000000010000000000000000000000000000000000000000000000000000000000000003298b075b4b6a5240945790610000000000000000000000000000000000000000000000001bc16d674ec800000000000000000000000000000000000000000000000000000de0b6b3a76400000000000000000000000000000000000000000000000000000000000000000258",
                "0x100d3f740000000000000000000000000000000000000001000000000000000000000000000000000000000000000000000000000000000a0000000000000000000000000000000000000000000000000000000000000000000000001bc16d674ec80000fffffffffffffffffffffffffffffffffffffffffffffffff21f494c589c00000000000000000000000000000000000000000000000000000000000000000258",
                "0x100d3f74000000000000000000000000000000000000149378ee44981bbfcee879e92bae000000000000000000000000000000000000000004b1c93ebf8a0da5b10b23d4000000000000000000000000000000000000000202ded16393eb492fe5113e27ffffffffffffffffffffffffffffffffffffffffffffffffffffffffffffffff0000000000000000000000000000000000000000000000000000000000000001",
                "0x100d3f74000000000000000000000000000000000000000000000000000000000000000200000000000000000000000000000000000000000000000000000000000000010000000000000000000000000000000000000000000000000000000000000001000000000000000000000000000000000000c107454e8a609a22ec7487c862b70000000000000000000000000000000000000000000000000000000000000001",
                "0x100d3f74000000000000000000000000000000000000000000000000000000000000096d000000000000000000000000000000000000000000000000011bd15c65b77e5800000000000000000000000000000000000000190e03e8198ff82e007f9618b2000000000000000000000000000000000000000000000000000000000000000a0000000000000000000000000000000000000000000000000000000000000750",
                "0x100d3f74000000000000000000000000000000000000010000000000000000000000000000000000000000000000000000000000000001199999999999999999999999990000000000000000000000000000000000000000000000000000000000000400fffffffffffffffffffffffffffffffffffffffffffffffffffffffffffffffc0000000000000000000000000000000000000000000000000000000000000bb8",
                "0x100d3f74000000000000000000000000000000000000010000000000000000000000000000000000000000000000000000000000000000e66666666666666666666666660000000000000000000000000000000000000000000000000000000000000400fffffffffffffffffffffffffffffffffffffffffffffffffffffffffffbfca80000000000000000000000000000000000000000000000000000000000000bb8"
            ],
            "gasLimit" : [
                "0x3b9aca00"
            ],
            "gasPrice" : "0x01",
            "nonce" : "0x00",
            "secretKey" : "0x45a915e4d060149eb4365960e6a7a45f334393093061116b197e3240065ff2d8",
            "sender" : "0xa94f5374fce5edbc8e2a8697c15331677e6ebf0b",
            "to" : "0xbe7c43a580000000000000000000000000000001",
            "value" : [
                "0x00"
            ]
        }
    }
}