{
    "sha1_shifts_d0g0v0_Berlin" : {
        "_info" : {
            "comment" : "",
            "filling-rpc-server" : "evm version 1.11.0-unstable-262bd38f-20221210",
            "filling-tool-version" : "retesteth-0.2.3-postmerge+commit.17808a69.Linux.g++",
            "generatedTestHash" : "266821bfe253e9641074faff34a2581b23efa4545f02313902615a5b2cd579b1",
            "lllcversion" : "Error getting LLLC Version",
            "solidity" : "Version: 0.8.17-develop.2022.9.30+commit.8df45f5f.Linux.clang",
            "source" : "tmp/main/sha1_shiftsFiller.yml",
            "sourceHash" : "0db8e804fe528ff1ccedce5e94c93025e5e481fe54303df666fd4bf60065f2aa"
        },
        "blocks" : [
            {
                "blockHeader" : {
                    "bloom" : "0x00000000000000000000000000000000000000000000000000000000000000000000000000000000000000000000000000000000000000000000000000000000000000000000000000000000000000000000000000000000000000000000000000000000000000000000000000000000000000000000000000000000000000000000000000000000000000000000000000000000000000000000000000000000000000000000000000000000000000000000000000000000000000000000000000000000000000000000000000000000000000000000000000000000000000000000000000000000000000000000000000000000000000000000000000000000",
                    "coinbase" : "0xa94f5374fce5edbc8e2a8697c15331677e6ebf0b",
                    "difficulty" : "0x020000",
                    "extraData" : "0x00",
                    "gasLimit" : "0x3b9aca00",
                    "gasUsed" : "0xdcf6",
                    "hash" : "0xc930f6eea0a9574c6d4157199ec70b887ed8d9640c45d67c8702864b3c3bc37c",
                    "mixHash" : "0x0000000000000000000000000000000000000000000000000000000000000000",
                    "nonce" : "0x0000000000000000",
                    "number" : "0x01",
                    "parentHash" : "0x5ee836ee576286d6aab8b113f41ccff8e09b129a15704c4312199bcf9c31d1c1",
                    "receiptTrie" : "0x0c72e2af2762b3978f395191229945bbaea72b947267dced215631590d808ff1",
                    "stateRoot" : "0x03521651d56763454b0b6f94b489a4a0f8db0f9455dcd3422aaef6046f79764c",
                    "timestamp" : "0x61a8d289",
                    "transactionsTrie" : "0x724f3fe8c2914afec427f423bad8705e86c3f281cc920102f880bc696ba7387c",
                    "uncleHash" : "0x1dcc4de8dec75d7aab85b567b6ccd41ad312451b948a7413f0a142fd40d49347"
                },
                "rlp" : "0xf902a8f901faa05ee836ee576286d6aab8b113f41ccff8e09b129a15704c4312199bcf9c31d1c1a01dcc4de8dec75d7aab85b567b6ccd41ad312451b948a7413f0a142fd40d4934794a94f5374fce5edbc8e2a8697c15331677e6ebf0ba003521651d56763454b0b6f94b489a4a0f8db0f9455dcd3422aaef6046f79764ca0724f3fe8c2914afec427f423bad8705e86c3f281cc920102f880bc696ba7387ca00c72e2af2762b3978f395191229945bbaea72b947267dced215631590d808ff1b90100000000000000000000000000000000000000000000000000000000000000000000000000000000000000000000000000000000000000000000000000000000000000000000000000000000000000000000000000000000000000000000000000000000000000000000000000000000000000000000000000000000000000000000000000000000000000000000000000000000000000000000000000000000000000000000000000000000000000000000000000000000000000000000000000000000000000000000000000000000000000000000000000000000000000000000000000000000000000000000000000000000000000000000000000000000008302000001843b9aca0082dcf68461a8d28900a00000000000000000000000000000000000000000000000000000000000000000880000000000000000f8a8f8a68001843b9aca0094be7c43a58000000000000000000000000000000180b8441605782b000000000000000000000000000000000000000000000000000000000000002000000000000000000000000000000000000000000000000000000000000000001ca0c878447803f18fe70657a7c0b86034ecb2a850343b3aeccd304fa0829ec2e9d6a031a99a3c50b035daf03ab69beb07462704331e1aa67f9f7d4fb229d9852a1472c0",
                "transactions" : [
                    {
                        "data" : "0x1605782b00000000000000000000000000000000000000000000000000000000000000200000000000000000000000000000000000000000000000000000000000000000",
                        "gasLimit" : "0x3b9aca00",
                        "gasPrice" : "0x01",
                        "nonce" : "0x00",
                        "r" : "0xc878447803f18fe70657a7c0b86034ecb2a850343b3aeccd304fa0829ec2e9d6",
                        "s" : "0x31a99a3c50b035daf03ab69beb07462704331e1aa67f9f7d4fb229d9852a1472",
                        "sender" : "0xa94f5374fce5edbc8e2a8697c15331677e6ebf0b",
                        "to" : "0xbe7c43a580000000000000000000000000000001",
                        "v" : "0x1c",
                        "value" : "0x00"
                    }
                ],
                "uncleHeaders" : [
                ]
            }
        ],
        "genesisBlockHeader" : {
            "bloom" : "0x00000000000000000000000000000000000000000000000000000000000000000000000000000000000000000000000000000000000000000000000000000000000000000000000000000000000000000000000000000000000000000000000000000000000000000000000000000000000000000000000000000000000000000000000000000000000000000000000000000000000000000000000000000000000000000000000000000000000000000000000000000000000000000000000000000000000000000000000000000000000000000000000000000000000000000000000000000000000000000000000000000000000000000000000000000000",
            "coinbase" : "0xa94f5374fce5edbc8e2a8697c15331677e6ebf0b",
            "difficulty" : "0x01",
            "extraData" : "0x00",
            "gasLimit" : "0x3b9aca00",
            "gasUsed" : "0x00",
            "hash" : "0x5ee836ee576286d6aab8b113f41ccff8e09b129a15704c4312199bcf9c31d1c1",
            "mixHash" : "0x0000000000000000000000000000000000000000000000000000000000000000",
            "nonce" : "0x0000000000000000",
            "number" : "0x00",
            "parentHash" : "0x0000000000000000000000000000000000000000000000000000000000000000",
            "receiptTrie" : "0x56e81f171bcc55a6ff8345e692c0f86e5b48e01b996cadc001622fb5e363b421",
            "stateRoot" : "0xb9a9c2cbdda78ced3fce345c92250b038bb6f62bff32de18fe039eaf26398c50",
            "timestamp" : "0x00",
            "transactionsTrie" : "0x56e81f171bcc55a6ff8345e692c0f86e5b48e01b996cadc001622fb5e363b421",
            "uncleHash" : "0x1dcc4de8dec75d7aab85b567b6ccd41ad312451b948a7413f0a142fd40d49347"
        },
        "genesisRLP" : "0xf901f6f901f1a00000000000000000000000000000000000000000000000000000000000000000a01dcc4de8dec75d7aab85b567b6ccd41ad312451b948a7413f0a142fd40d4934794a94f5374fce5edbc8e2a8697c15331677e6ebf0ba0b9a9c2cbdda78ced3fce345c92250b038bb6f62bff32de18fe039eaf26398c50a056e81f171bcc55a6ff8345e692c0f86e5b48e01b996cadc001622fb5e363b421a056e81f171bcc55a6ff8345e692c0f86e5b48e01b996cadc001622fb5e363b421b90100000000000000000000000000000000000000000000000000000000000000000000000000000000000000000000000000000000000000000000000000000000000000000000000000000000000000000000000000000000000000000000000000000000000000000000000000000000000000000000000000000000000000000000000000000000000000000000000000000000000000000000000000000000000000000000000000000000000000000000000000000000000000000000000000000000000000000000000000000000000000000000000000000000000000000000000000000000000000000000000000000000000000000000000000000000000180843b9aca00808000a00000000000000000000000000000000000000000000000000000000000000000880000000000000000c0c0",
        "lastblockhash" : "0xc930f6eea0a9574c6d4157199ec70b887ed8d9640c45d67c8702864b3c3bc37c",
        "network" : "Berlin",
        "postState" : {
            "0xa94f5374fce5edbc8e2a8697c15331677e6ebf0b" : {
                "balance" : "0x1bc16d678a62ca00",
                "code" : "0x",
                "nonce" : "0x01",
                "storage" : {
                }
            },
            "0xbe7c43a580000000000000000000000000000001" : {
                "balance" : "0x00",
                "code" : "0x608060405234801561001057600080fd5b506004361061002b5760003560e01c80631605782b14610030575b600080fd5b6100d66004803603602081101561004657600080fd5b81019060208101813564010000000081111561006157600080fd5b82018360208201111561007357600080fd5b8035906020019184600183028401116401000000008311171561009557600080fd5b91908080601f0160208091040260200160405190810160405280939291908181526020018383808284376000920191909152509295506100f8945050505050565b604080516bffffffffffffffffffffffff199092168252519081900360200190f35b60006040518251602084019350604067ffffffffffffffc06001830116016009828203106001811461012957610130565b6040820191505b50776745230100efcdab890098badcfe001032547600c3d2e1f0610183565b60008383101561017c5750808201519282900392602084101561017c5760001960208590036101000a0119165b9392505050565b60005b8281101561045c5761019984828961014f565b85526101a984602083018961014f565b6020860152604081850310600181146101c1576101ca565b60808286038701535b50604083038114600181146101de576101ee565b8460031b60208701511760208701525b5060405b608081101561027157858101603f19810151603719820151601f19830151600b1984015118911818600181901b7ffffffffefffffffefffffffefffffffefffffffefffffffefffffffefffffffe16601f9190911c7c010000000100000001000000010000000100000001000000010000000116179052600c016101f2565b5060805b6101408110156102f557858101607f19810151606f19820151603f1983015160171984015118911818600281901b7ffffffffcfffffffcfffffffcfffffffcfffffffcfffffffcfffffffcfffffffc16601e9190911c7c030000000300000003000000030000000300000003000000030000000316179052601801610275565b508160008060005b60508110156104325760148104801561032d576001811461034e576002811461036d5760038114610391576103ac565b602885901c605086901c8118607887901c16189350635a82799992506103ac565b8460501c8560781c189350838560281c189350636ed9eba192506103ac565b605085901c607886901c818117602888901c169116179350638f1bbcdc92506103ac565b8460501c8560781c189350838560281c18935063ca62c1d692505b50601f8460bb1c168063ffffffe086609b1c1617905080840190508063ffffffff86160190508083019050808260021b8b015160e01c0190508060a01b8560281c179450633fffffff8560521c1663c00000008660321c161760501b77ffffffff00ffffffff000000000000ffffffff00ffffffff8616179450506001810190506102fd565b5050509190910177ffffffff00ffffffff00ffffffff00ffffffff00ffffffff1690604001610186565b5063ffffffff811667ffffffff000000008260081c166bffffffff00000000000000008360101c166fffffffff0000000000000000000000008460181c1673ffffffff000000000000000000000000000000008560201c161717171760601b94505050505091905056fea165627a7a72305820227af8b272b9b0e3d345f580ebcde55f50e3e8b7ecafabffcadb92e55e4de68e0029",
                "nonce" : "0x00",
                "storage" : {
                }
            }
        },
        "pre" : {
            "0xa94f5374fce5edbc8e2a8697c15331677e6ebf0b" : {
                "balance" : "0x3b9aca00",
                "code" : "0x",
                "nonce" : "0x00",
                "storage" : {
                }
            },
            "0xbe7c43a580000000000000000000000000000001" : {
                "balance" : "0x00",
                "code" : "0x608060405234801561001057600080fd5b506004361061002b5760003560e01c80631605782b14610030575b600080fd5b6100d66004803603602081101561004657600080fd5b81019060208101813564010000000081111561006157600080fd5b82018360208201111561007357600080fd5b8035906020019184600183028401116401000000008311171561009557600080fd5b91908080601f0160208091040260200160405190810160405280939291908181526020018383808284376000920191909152509295506100f8945050505050565b604080516bffffffffffffffffffffffff199092168252519081900360200190f35b60006040518251602084019350604067ffffffffffffffc06001830116016009828203106001811461012957610130565b6040820191505b50776745230100efcdab890098badcfe001032547600c3d2e1f0610183565b60008383101561017c5750808201519282900392602084101561017c5760001960208590036101000a0119165b9392505050565b60005b8281101561045c5761019984828961014f565b85526101a984602083018961014f565b6020860152604081850310600181146101c1576101ca565b60808286038701535b50604083038114600181146101de576101ee565b8460031b60208701511760208701525b5060405b608081101561027157858101603f19810151603719820151601f19830151600b1984015118911818600181901b7ffffffffefffffffefffffffefffffffefffffffefffffffefffffffefffffffe16601f9190911c7c010000000100000001000000010000000100000001000000010000000116179052600c016101f2565b5060805b6101408110156102f557858101607f19810151606f19820151603f1983015160171984015118911818600281901b7ffffffffcfffffffcfffffffcfffffffcfffffffcfffffffcfffffffcfffffffc16601e9190911c7c030000000300000003000000030000000300000003000000030000000316179052601801610275565b508160008060005b60508110156104325760148104801561032d576001811461034e576002811461036d5760038114610391576103ac565b602885901c605086901c8118607887901c16189350635a82799992506103ac565b8460501c8560781c189350838560281c189350636ed9eba192506103ac565b605085901c607886901c818117602888901c169116179350638f1bbcdc92506103ac565b8460501c8560781c189350838560281c18935063ca62c1d692505b50601f8460bb1c168063ffffffe086609b1c1617905080840190508063ffffffff86160190508083019050808260021b8b015160e01c0190508060a01b8560281c179450633fffffff8560521c1663c00000008660321c161760501b77ffffffff00ffffffff000000000000ffffffff00ffffffff8616179450506001810190506102fd565b5050509190910177ffffffff00ffffffff00ffffffff00ffffffff00ffffffff1690604001610186565b5063ffffffff811667ffffffff000000008260081c166bffffffff00000000000000008360101c166fffffffff0000000000000000000000008460181c1673ffffffff000000000000000000000000000000008560201c161717171760601b94505050505091905056fea165627a7a72305820227af8b272b9b0e3d345f580ebcde55f50e3e8b7ecafabffcadb92e55e4de68e0029",
                "nonce" : "0x00",
                "storage" : {
                }
            }
        },
        "sealEngine" : "NoProof"
    },
    "sha1_shifts_d1g0v0_Berlin" : {
        "_info" : {
            "comment" : "",
            "filling-rpc-server" : "evm version 1.11.0-unstable-262bd38f-20221210",
            "filling-tool-version" : "retesteth-0.2.3-postmerge+commit.17808a69.Linux.g++",
            "generatedTestHash" : "fc12453e4ffb9e9a481fa3cdfee7030cec754ab6ed654d4109c2f9f3f370bf7c",
            "lllcversion" : "Error getting LLLC Version",
            "solidity" : "Version: 0.8.17-develop.2022.9.30+commit.8df45f5f.Linux.clang",
            "source" : "tmp/main/sha1_shiftsFiller.yml",
            "sourceHash" : "0db8e804fe528ff1ccedce5e94c93025e5e481fe54303df666fd4bf60065f2aa"
        },
        "blocks" : [
            {
                "blockHeader" : {
                    "bloom" : "0x00000000000000000000000000000000000000000000000000000000000000000000000000000000000000000000000000000000000000000000000000000000000000000000000000000000000000000000000000000000000000000000000000000000000000000000000000000000000000000000000000000000000000000000000000000000000000000000000000000000000000000000000000000000000000000000000000000000000000000000000000000000000000000000000000000000000000000000000000000000000000000000000000000000000000000000000000000000000000000000000000000000000000000000000000000000",
                    "coinbase" : "0xa94f5374fce5edbc8e2a8697c15331677e6ebf0b",
                    "difficulty" : "0x020000",
                    "extraData" : "0x00",
                    "gasLimit" : "0x3b9aca00",
                    "gasUsed" : "0x2ce091",
                    "hash" : "0xa6ec5eb1cc363060b60898932890a5234dbe6973377f870a06bf7e8307bb0ec3",
                    "mixHash" : "0x0000000000000000000000000000000000000000000000000000000000000000",
                    "nonce" : "0x0000000000000000",
                    "number" : "0x01",
                    "parentHash" : "0x5ee836ee576286d6aab8b113f41ccff8e09b129a15704c4312199bcf9c31d1c1",
                    "receiptTrie" : "0x76ecda3ea2575c6d78b2e7f81ed2ee868a4ac0eee7cb8b00d8d8cda905e4d75a",
                    "stateRoot" : "0x03521651d56763454b0b6f94b489a4a0f8db0f9455dcd3422aaef6046f79764c",
                    "timestamp" : "0x61a8d289",
                    "transactionsTrie" : "0x56f63cd0811f61d223ebb5776aa9f4ce940be21f31cb25b44b10805f109a44d8",
                    "uncleHash" : "0x1dcc4de8dec75d7aab85b567b6ccd41ad312451b948a7413f0a142fd40d49347"
                },
                "rlp" : "0xf9176bf901fba05ee836ee576286d6aab8b113f41ccff8e09b129a15704c4312199bcf9c31d1c1a01dcc4de8dec75d7aab85b567b6ccd41ad312451b948a7413f0a142fd40d4934794a94f5374fce5edbc8e2a8697c15331677e6ebf0ba003521651d56763454b0b6f94b489a4a0f8db0f9455dcd3422aaef6046f79764ca056f63cd0811f61d223ebb5776aa9f4ce940be21f31cb25b44b10805f109a44d8a076ecda3ea2575c6d78b2e7f81ed2ee868a4ac0eee7cb8b00d8d8cda905e4d75ab90100000000000000000000000000000000000000000000000000000000000000000000000000000000000000000000000000000000000000000000000000000000000000000000000000000000000000000000000000000000000000000000000000000000000000000000000000000000000000000000000000000000000000000000000000000000000000000000000000000000000000000000000000000000000000000000000000000000000000000000000000000000000000000000000000000000000000000000000000000000000000000000000000000000000000000000000000000000000000000000000000000000000000000000000000000000008302000001843b9aca00832ce0918461a8d28900a00000000000000000000000000000000000000000000000000000000000000000880000000000000000f91569f915668001843b9aca0094be7c43a58000000000000000000000000000000180b915031605782b000000000000000000000000000000000000000000000000000000000000002000000000000000000000000000000000000000000000000000000000000014bf000000000000000000000000000000000000000000000000000000000000000000000000000000000000000000000000000000000000000000000000000000000000000000000000000000000000000000000000000000000000000000000000000000000000000000000000000000000000000000000000000000000000000000000000000000000000000000000000000000000000000000000000000000000000000000000000000000000000000000000000000000000000000000000000000000000000000000000000000000000000000000000000000000000000000000000000000000000000000000000000000000000000000000000000000000000000000000000000000000000000000000000000000000000000000000000000000000000000000000000000000000000000000000000000000000000000000000000000000000000000000000000000000000000000000000000000000000000000000000000000000000000000000000000000000000000000000000000000000000000000000000000000000000000000000000000000000000000000000000000000000000000000000000000000000000000000000000000000000000000000000000000000000000000000000000000000000000000000000000000000000000000000000000000000000000000000000000000000000000000000000000000000000000000000000000000000000000000000000000000000000000000000000000000000000000000000000000000000000000000000000000000000000000000000000000000000000000000000000000000000000000000000000000000000000000000000000000000000000000000000000000000000000000000000000000000000000000000000000000000000000000000000000000000000000000000000000000000000000000000000000000000000000000000000000000000000000000000000000000000000000000000000000000000000000000000000000000000000000000000000000000000000000000000000000000000000000000000000000000000000000000000000000000000000000000000000000000000000000000000000000000000000000000000000000000000000000000000000000000000000000000000000000000000000000000000000000000000000000000000000000000000000000000000000000000000000000000000000000000000000000000000000000000000000000000000000000000000000000000000000000000000000000000000000000000000000000000000000000000000000000000000000000000000000000000000000000000000000000000000000000000000000000000000000000000000000000000000000000000000000000000000000000000000000000000000000000000000000000000000000000000000000000000000000000000000000000000000000000000000000000000000000000000000000000000000000000000000000000000000000000000000000000000000000000000000000000000000000000000000000000000000000000000000000000000000000000000000000000000000000000000000000000000000000000000000000000000000000000000000000000000000000000000000000000000000000000000000000000000000000000000000000000000000000000000000000000000000000000000000000000000000000000000000000000000000000000000000000000000000000000000000000000000000000000000000000000000000000000000000000000000000000000000000000000000000000000000000000000000000000000000000000000000000000000000000000000000000000000000000000000000000000000000000000000000000000000000000000000000000000000000000000000000000000000000000000000000000000000000000000000000000000000000000000000000000000000000000000000000000000000000000000000000000000000000000000000000000000000000000000000000000000000000000000000000000000000000000000000000000000000000000000000000000000000000000000000000000000000000000000000000000000000000000000000000000000000000000000000000000000000000000000000000000000000000000000000000000000000000000000000000000000000000000000000000000000000000000000000000000000000000000000000000000000000000000000000000000000000000000000000000000000000000000000000000000000000000000000000000000000000000000000000000000000000000000000000000000000000000000000000000000000000000000000000000000000000000000000000000000000000000000000000000000000000000000000000000000000000000000000000000000000000000000000000000000000000000000000000000000000000000000000000000000000000000000000000000000000000000000000000000000000000000000000000000000000000000000000000000000000000000000000000000000000000000000000000000000000000000000000000000000000000000000000000000000000000000000000000000000000000000000000000000000000000000000000000000000000000000000000000000000000000000000000000000000000000000000000000000000000000000000000000000000000000000000000000000000000000000000000000000000000000000000000000000000000000000000000000000000000000000000000000000000000000000000000000000000000000000000000000000000000000000000000000000000000000000000000000000000000000000000000000000000000000000000000000000000000000000000000000000000000000000000000000000000000000000000000000000000000000000000000000000000000000000000000000000000000000000000000000000000000000000000000000000000000000000000000000000000000000000000000000000000000000000000000000000000000000000000000000000000000000000000000000000000000000000000000000000000000000000000000000000000000000000000000000000000000000000000000000000000000000000000000000000000000000000000000000000000000000000000000000000000000000000000000000000000000000000000000000000000000000000000000000000000000000000000000000000000000000000000000000000000000000000000000000000000000000000000000000000000000000000000000000000000000000000000000000000000000000000000000000000000000000000000000000000000000000000000000000000000000000000000000000000000000000000000000000000000000000000000000000000000000000000000000000000000000000000000000000000000000000000000000000000000000000000000000000000000000000000000000000000000000000000000000000000000000000000000000000000000000000000000000000000000000000000000000000000000000000000000000000000000000000000000000000000000000000000000000000000000000000000000000000000000000000000000000000000000000000000000000000000000000000000000000000000000000000000000000000000000000000000000000000000000000000000000000000000000000000000000000000000000000000000000000000000000000000000000000000000000000000000000000000000000000000000000000000000000000000000000000000000000000000000000000000000000000000000000000000000000000000000000000000000000000000000000000000000000000000000000000000000000000000000000000000000000000000000000000000000000000000000000000000000000000000000000000000000000000000000000000000000000000000000000000000000000000000000000000000000000000000000000000000000000000000000000000000000000000000000000000000000000000000000000000000000000000000000000000000000000000000000000000000000000000000000000000000000000000000000000000000000000000000000000000000000000000000000000000000000000000000000000000000000000000000000000000000000000000000000000000000000000000000000000000000000000000000000000000000000000000000000000000000000000000000000000000000000000000000000000000000000000000000000000000000000000000000000000000000000000000000000000000000000000000000000000000000000000000000000000000000000000000000000000000000000000000000000000000000000000000000000000000000000000000000000000000000000000000000000000000000000000000000000000000000000000000000000000000000000000000000000000000000000000000000000000000000000000000000000000000000000000000000000000000000000000000000000000000000000000000000000000000000000000000000000000000000000000000000000000000000000000000000000000000000000000000000000000000000000000000000000000000000000000000000000000000000000000000000000000000000000000000000000000000000000000000000000000000000000000000000000000000000000000000000000000000000000000000000000000000000000000000000000000000000000000000000000000000000000000000000000000000000000000000000000000000000000000000000000000000000000000000000000000000000000000000000000000000000000000000000000000000000000000000000000000000000000000000000000000000000000000000000000000000000000000000000000000000000000000000000000000000000000000000000000000000000000000000000000000000000000000000000000000000000000000000000000000000000000000000000000000000000000000000000000000000000000000000000000000000000000000000000000000000000000000000000000000000000000000000000000000000000000000000000000000000000000000000000000000000000000000000000000000000000000000000000000000000000000000000000000000000000000000000000000000000000000000000000000000000000000000000000000000000000000000000000000000000000000000000000000000000000000000000000000000000000000000000000000000000000000000000000000000000000000000000000000000000000000000000000000000000000000000000000000000000000000000000000000000000000000000000000000000000000000000000000000000000000000000000000000000000000000000000000000000000000000000000000000000000000000000000000000000000000000000000000000000000000000000000000000000000000000000000000000000000000000000000000000000000000000000000000000000000000000000000000000000000000000000000000000000000000000000000000000000000000000000000000000000000000000000000000000000000000000000000000000000000000000000000000000000000000000000000000000000000000000000000000000000000000000000000000000000000000000000000000000000000000000000000000000000000000000000000000000000000000000000000000000000000000000000000000000000000000000000000000000000000000000000000000000000000000000000000000000000000000000000000000000000000000000000000000000000000000000000000000000000000000000000000000000000000000000000000000000000000000000000000000000000000000000000000000000000000000000000000000000000000000000000000000000000000000000000000000000000000000000000000000000000000000000000000000000000000000000000000000000000000000000000000000000000000000000000000000000000000000000000000000000000000000000000000000000000000000000000000000000000000000000000000000000000000000000000000000000000000000000000000000000000000000000000000000000000000000000000000000000000000000000000000000000000000000000000000000000000000000000000000000000000000000000000000000000000000000000000000000000000000000000000000000000000000000000000000000000000000000000000000000000000000000000000000000000000000000000000000000000000000000000000000000000000000000000000000000000000000000000000000000000000000000000000000000000000000000000000000000000000000000000000000000000000000000000000000000000000000000000000000000000000000000000000000000000000000000000000000000000000000000000000000000000000000000000000000000000000000000000000000000000000000000000000000000000000000000000000000000000000000000000000000000000000000000000000000000000000000000000000000000000000000000000000000000000000000000000000000000000000000000000000000000000000000000000000000000000000000000000000000000000000000000000000000000000000000000000000000000000000000000000000000000000000000000000000000000000000000000000000000000000000000000000000000000000000000000000000000000000000000000000000000000000000000000000000000000000000000000000000000000000000000000000000000000000000000000000000000000000000000000000000000000000000000000000000000000000000000000000000000000000000000000000000000000000000000000000000000000000000000000000000000000000000000000000000000000000000000000000000000001ba0777eb87fed7fd097034c12b76c6af3c645535b4498f39f5f69eb2c905286bf80a03ecc9c13fabe5b9af6a4d3f92bb5d89d3eb54b9dcb7e2ee99dfbf52a0095b6e6c0",
                "transactions" : [
                    {
                        "data" : "0x1605782b000000000000000000000000000000000000000000000000000000000000002000000000000000000000000000000000000000000000000000000000000014bf00000000000000000000000000000000000000000000000000000000000000000000000000000000000000000000000000000000000000000000000000000000000000000000000000000000000000000000000000000000000000000000000000000000000000000000000000000000000000000000000000000000000000000000000000000000000000000000000000000000000000000000000000000000000000000000000000000000000000000000000000000000000000000000000000000000000000000000000000000000000000000000000000000000000000000000000000000000000000000000000000000000000000000000000000000000000000000000000000000000000000000000000000000000000000000000000000000000000000000000000000000000000000000000000000000000000000000000000000000000000000000000000000000000000000000000000000000000000000000000000000000000000000000000000000000000000000000000000000000000000000000000000000000000000000000000000000000000000000000000000000000000000000000000000000000000000000000000000000000000000000000000000000000000000000000000000000000000000000000000000000000000000000000000000000000000000000000000000000000000000000000000000000000000000000000000000000000000000000000000000000000000000000000000000000000000000000000000000000000000000000000000000000000000000000000000000000000000000000000000000000000000000000000000000000000000000000000000000000000000000000000000000000000000000000000000000000000000000000000000000000000000000000000000000000000000000000000000000000000000000000000000000000000000000000000000000000000000000000000000000000000000000000000000000000000000000000000000000000000000000000000000000000000000000000000000000000000000000000000000000000000000000000000000000000000000000000000000000000000000000000000000000000000000000000000000000000000000000000000000000000000000000000000000000000000000000000000000000000000000000000000000000000000000000000000000000000000000000000000000000000000000000000000000000000000000000000000000000000000000000000000000000000000000000000000000000000000000000000000000000000000000000000000000000000000000000000000000000000000000000000000000000000000000000000000000000000000000000000000000000000000000000000000000000000000000000000000000000000000000000000000000000000000000000000000000000000000000000000000000000000000000000000000000000000000000000000000000000000000000000000000000000000000000000000000000000000000000000000000000000000000000000000000000000000000000000000000000000000000000000000000000000000000000000000000000000000000000000000000000000000000000000000000000000000000000000000000000000000000000000000000000000000000000000000000000000000000000000000000000000000000000000000000000000000000000000000000000000000000000000000000000000000000000000000000000000000000000000000000000000000000000000000000000000000000000000000000000000000000000000000000000000000000000000000000000000000000000000000000000000000000000000000000000000000000000000000000000000000000000000000000000000000000000000000000000000000000000000000000000000000000000000000000000000000000000000000000000000000000000000000000000000000000000000000000000000000000000000000000000000000000000000000000000000000000000000000000000000000000000000000000000000000000000000000000000000000000000000000000000000000000000000000000000000000000000000000000000000000000000000000000000000000000000000000000000000000000000000000000000000000000000000000000000000000000000000000000000000000000000000000000000000000000000000000000000000000000000000000000000000000000000000000000000000000000000000000000000000000000000000000000000000000000000000000000000000000000000000000000000000000000000000000000000000000000000000000000000000000000000000000000000000000000000000000000000000000000000000000000000000000000000000000000000000000000000000000000000000000000000000000000000000000000000000000000000000000000000000000000000000000000000000000000000000000000000000000000000000000000000000000000000000000000000000000000000000000000000000000000000000000000000000000000000000000000000000000000000000000000000000000000000000000000000000000000000000000000000000000000000000000000000000000000000000000000000000000000000000000000000000000000000000000000000000000000000000000000000000000000000000000000000000000000000000000000000000000000000000000000000000000000000000000000000000000000000000000000000000000000000000000000000000000000000000000000000000000000000000000000000000000000000000000000000000000000000000000000000000000000000000000000000000000000000000000000000000000000000000000000000000000000000000000000000000000000000000000000000000000000000000000000000000000000000000000000000000000000000000000000000000000000000000000000000000000000000000000000000000000000000000000000000000000000000000000000000000000000000000000000000000000000000000000000000000000000000000000000000000000000000000000000000000000000000000000000000000000000000000000000000000000000000000000000000000000000000000000000000000000000000000000000000000000000000000000000000000000000000000000000000000000000000000000000000000000000000000000000000000000000000000000000000000000000000000000000000000000000000000000000000000000000000000000000000000000000000000000000000000000000000000000000000000000000000000000000000000000000000000000000000000000000000000000000000000000000000000000000000000000000000000000000000000000000000000000000000000000000000000000000000000000000000000000000000000000000000000000000000000000000000000000000000000000000000000000000000000000000000000000000000000000000000000000000000000000000000000000000000000000000000000000000000000000000000000000000000000000000000000000000000000000000000000000000000000000000000000000000000000000000000000000000000000000000000000000000000000000000000000000000000000000000000000000000000000000000000000000000000000000000000000000000000000000000000000000000000000000000000000000000000000000000000000000000000000000000000000000000000000000000000000000000000000000000000000000000000000000000000000000000000000000000000000000000000000000000000000000000000000000000000000000000000000000000000000000000000000000000000000000000000000000000000000000000000000000000000000000000000000000000000000000000000000000000000000000000000000000000000000000000000000000000000000000000000000000000000000000000000000000000000000000000000000000000000000000000000000000000000000000000000000000000000000000000000000000000000000000000000000000000000000000000000000000000000000000000000000000000000000000000000000000000000000000000000000000000000000000000000000000000000000000000000000000000000000000000000000000000000000000000000000000000000000000000000000000000000000000000000000000000000000000000000000000000000000000000000000000000000000000000000000000000000000000000000000000000000000000000000000000000000000000000000000000000000000000000000000000000000000000000000000000000000000000000000000000000000000000000000000000000000000000000000000000000000000000000000000000000000000000000000000000000000000000000000000000000000000000000000000000000000000000000000000000000000000000000000000000000000000000000000000000000000000000000000000000000000000000000000000000000000000000000000000000000000000000000000000000000000000000000000000000000000000000000000000000000000000000000000000000000000000000000000000000000000000000000000000000000000000000000000000000000000000000000000000000000000000000000000000000000000000000000000000000000000000000000000000000000000000000000000000000000000000000000000000000000000000000000000000000000000000000000000000000000000000000000000000000000000000000000000000000000000000000000000000000000000000000000000000000000000000000000000000000000000000000000000000000000000000000000000000000000000000000000000000000000000000000000000000000000000000000000000000000000000000000000000000000000000000000000000000000000000000000000000000000000000000000000000000000000000000000000000000000000000000000000000000000000000000000000000000000000000000000000000000000000000000000000000000000000000000000000000000000000000000000000000000000000000000000000000000000000000000000000000000000000000000000000000000000000000000000000000000000000000000000000000000000000000000000000000000000000000000000000000000000000000000000000000000000000000000000000000000000000000000000000000000000000000000000000000000000000000000000000000000000000000000000000000000000000000000000000000000000000000000000000000000000000000000000000000000000000000000000000000000000000000000000000000000000000000000000000000000000000000000000000000000000000000000000000000000000000000000000000000000000000000000000000000000000000000000000000000000000000000000000000000000000000000000000000000000000000000000000000000000000000000000000000000000000000000000000000000000000000000000000000000000000000000000000000000000000000000000000000000000000000000000000000000000000000000000000000000000000000000000000000000000000000000000000000000000000000000000000000000000000000000000000000000000000000000000000000000000000000000000000000000000000000000000000000000000000000000000000000000000000000000000000000000000000000000000000000000000000000000000000000000000000000000000000000000000000000000000000000000000000000000000000000000000000000000000000000000000000000000000000000000000000000000000000000000000000000000000000000000000000000000000000000000000000000000000000000000000000000000000000000000000000000000000000000000000000000000000000000000000000000000000000000000000000000000000000000000000000000000000000000000000000000000000000000000000000000000000000000000000000000000000000000000000000000000000000000000000000000000000000000000000000000000000000000000000000000000000000000000000000000000000000000000000000000000000000000000000000000000000000000000000000000000000000000000000000000000000000000000000000000000000000000000000000000000000000000000000000000000000000000000000000000000000000000000000000000000000000000000000000000000000000000000000000000000000000000000000000000000000000000000000000000000000000000000000000000000000000000000000000000000000000000000000000000000000000000000000000000000000000000000000000000000000000000000000000000000000000000000000000000000000000000000000000000000000000000000000000000000000000000000000000000000000000000000000000000000000000000000000000000000000000000000000000000000000000000000000000000000000000000000000000000000000000000000000000000000000000000000000000000000000000000000000000000000000000000000000000000000000000000000000000000000000000000000000000000000000000000000000000000000000000000000000000000000000000000000000000000000000000000000000000000000000000000000000000000000000000000000000000000000000000000000000000000000000000000000000000000000000000000000000000000000000000000000000000000000000000000000000000000000000000000000000000000000000000000000000000000000000000000000000000000000000000000000000000",
                        "gasLimit" : "0x3b9aca00",
                        "gasPrice" : "0x01",
                        "nonce" : "0x00",
                        "r" : "0x777eb87fed7fd097034c12b76c6af3c645535b4498f39f5f69eb2c905286bf80",
                        "s" : "0x3ecc9c13fabe5b9af6a4d3f92bb5d89d3eb54b9dcb7e2ee99dfbf52a0095b6e6",
                        "sender" : "0xa94f5374fce5edbc8e2a8697c15331677e6ebf0b",
                        "to" : "0xbe7c43a580000000000000000000000000000001",
                        "v" : "0x1b",
                        "value" : "0x00"
                    }
                ],
                "uncleHeaders" : [
                ]
            }
        ],
        "genesisBlockHeader" : {
            "bloom" : "0x00000000000000000000000000000000000000000000000000000000000000000000000000000000000000000000000000000000000000000000000000000000000000000000000000000000000000000000000000000000000000000000000000000000000000000000000000000000000000000000000000000000000000000000000000000000000000000000000000000000000000000000000000000000000000000000000000000000000000000000000000000000000000000000000000000000000000000000000000000000000000000000000000000000000000000000000000000000000000000000000000000000000000000000000000000000",
            "coinbase" : "0xa94f5374fce5edbc8e2a8697c15331677e6ebf0b",
            "difficulty" : "0x01",
            "extraData" : "0x00",
            "gasLimit" : "0x3b9aca00",
            "gasUsed" : "0x00",
            "hash" : "0x5ee836ee576286d6aab8b113f41ccff8e09b129a15704c4312199bcf9c31d1c1",
            "mixHash" : "0x0000000000000000000000000000000000000000000000000000000000000000",
            "nonce" : "0x0000000000000000",
            "number" : "0x00",
            "parentHash" : "0x0000000000000000000000000000000000000000000000000000000000000000",
            "receiptTrie" : "0x56e81f171bcc55a6ff8345e692c0f86e5b48e01b996cadc001622fb5e363b421",
            "stateRoot" : "0xb9a9c2cbdda78ced3fce345c92250b038bb6f62bff32de18fe039eaf26398c50",
            "timestamp" : "0x00",
            "transactionsTrie" : "0x56e81f171bcc55a6ff8345e692c0f86e5b48e01b996cadc001622fb5e363b421",
            "uncleHash" : "0x1dcc4de8dec75d7aab85b567b6ccd41ad312451b948a7413f0a142fd40d49347"
        },
        "genesisRLP" : "0xf901f6f901f1a00000000000000000000000000000000000000000000000000000000000000000a01dcc4de8dec75d7aab85b567b6ccd41ad312451b948a7413f0a142fd40d4934794a94f5374fce5edbc8e2a8697c15331677e6ebf0ba0b9a9c2cbdda78ced3fce345c92250b038bb6f62bff32de18fe039eaf26398c50a056e81f171bcc55a6ff8345e692c0f86e5b48e01b996cadc001622fb5e363b421a056e81f171bcc55a6ff8345e692c0f86e5b48e01b996cadc001622fb5e363b421b90100000000000000000000000000000000000000000000000000000000000000000000000000000000000000000000000000000000000000000000000000000000000000000000000000000000000000000000000000000000000000000000000000000000000000000000000000000000000000000000000000000000000000000000000000000000000000000000000000000000000000000000000000000000000000000000000000000000000000000000000000000000000000000000000000000000000000000000000000000000000000000000000000000000000000000000000000000000000000000000000000000000000000000000000000000000000180843b9aca00808000a00000000000000000000000000000000000000000000000000000000000000000880000000000000000c0c0",
        "lastblockhash" : "0xa6ec5eb1cc363060b60898932890a5234dbe6973377f870a06bf7e8307bb0ec3",
        "network" : "Berlin",
        "postState" : {
            "0xa94f5374fce5edbc8e2a8697c15331677e6ebf0b" : {
                "balance" : "0x1bc16d678a62ca00",
                "code" : "0x",
                "nonce" : "0x01",
                "storage" : {
                }
            },
            "0xbe7c43a580000000000000000000000000000001" : {
                "balance" : "0x00",
                "code" : "0x608060405234801561001057600080fd5b506004361061002b5760003560e01c80631605782b14610030575b600080fd5b6100d66004803603602081101561004657600080fd5b81019060208101813564010000000081111561006157600080fd5b82018360208201111561007357600080fd5b8035906020019184600183028401116401000000008311171561009557600080fd5b91908080601f0160208091040260200160405190810160405280939291908181526020018383808284376000920191909152509295506100f8945050505050565b604080516bffffffffffffffffffffffff199092168252519081900360200190f35b60006040518251602084019350604067ffffffffffffffc06001830116016009828203106001811461012957610130565b6040820191505b50776745230100efcdab890098badcfe001032547600c3d2e1f0610183565b60008383101561017c5750808201519282900392602084101561017c5760001960208590036101000a0119165b9392505050565b60005b8281101561045c5761019984828961014f565b85526101a984602083018961014f565b6020860152604081850310600181146101c1576101ca565b60808286038701535b50604083038114600181146101de576101ee565b8460031b60208701511760208701525b5060405b608081101561027157858101603f19810151603719820151601f19830151600b1984015118911818600181901b7ffffffffefffffffefffffffefffffffefffffffefffffffefffffffefffffffe16601f9190911c7c010000000100000001000000010000000100000001000000010000000116179052600c016101f2565b5060805b6101408110156102f557858101607f19810151606f19820151603f1983015160171984015118911818600281901b7ffffffffcfffffffcfffffffcfffffffcfffffffcfffffffcfffffffcfffffffc16601e9190911c7c030000000300000003000000030000000300000003000000030000000316179052601801610275565b508160008060005b60508110156104325760148104801561032d576001811461034e576002811461036d5760038114610391576103ac565b602885901c605086901c8118607887901c16189350635a82799992506103ac565b8460501c8560781c189350838560281c189350636ed9eba192506103ac565b605085901c607886901c818117602888901c169116179350638f1bbcdc92506103ac565b8460501c8560781c189350838560281c18935063ca62c1d692505b50601f8460bb1c168063ffffffe086609b1c1617905080840190508063ffffffff86160190508083019050808260021b8b015160e01c0190508060a01b8560281c179450633fffffff8560521c1663c00000008660321c161760501b77ffffffff00ffffffff000000000000ffffffff00ffffffff8616179450506001810190506102fd565b5050509190910177ffffffff00ffffffff00ffffffff00ffffffff00ffffffff1690604001610186565b5063ffffffff811667ffffffff000000008260081c166bffffffff00000000000000008360101c166fffffffff0000000000000000000000008460181c1673ffffffff000000000000000000000000000000008560201c161717171760601b94505050505091905056fea165627a7a72305820227af8b272b9b0e3d345f580ebcde55f50e3e8b7ecafabffcadb92e55e4de68e0029",
                "nonce" : "0x00",
                "storage" : {
                }
            }
        },
        "pre" : {
            "0xa94f5374fce5edbc8e2a8697c15331677e6ebf0b" : {
                "balance" : "0x3b9aca00",
                "code" : "0x",
                "nonce" : "0x00",
                "storage" : {
                }
            },
            "0xbe7c43a580000000000000000000000000000001" : {
                "balance" : "0x00",
                "code" : "0x608060405234801561001057600080fd5b506004361061002b5760003560e01c80631605782b14610030575b600080fd5b6100d66004803603602081101561004657600080fd5b81019060208101813564010000000081111561006157600080fd5b82018360208201111561007357600080fd5b8035906020019184600183028401116401000000008311171561009557600080fd5b91908080601f0160208091040260200160405190810160405280939291908181526020018383808284376000920191909152509295506100f8945050505050565b604080516bffffffffffffffffffffffff199092168252519081900360200190f35b60006040518251602084019350604067ffffffffffffffc06001830116016009828203106001811461012957610130565b6040820191505b50776745230100efcdab890098badcfe001032547600c3d2e1f0610183565b60008383101561017c5750808201519282900392602084101561017c5760001960208590036101000a0119165b9392505050565b60005b8281101561045c5761019984828961014f565b85526101a984602083018961014f565b6020860152604081850310600181146101c1576101ca565b60808286038701535b50604083038114600181146101de576101ee565b8460031b60208701511760208701525b5060405b608081101561027157858101603f19810151603719820151601f19830151600b1984015118911818600181901b7ffffffffefffffffefffffffefffffffefffffffefffffffefffffffefffffffe16601f9190911c7c010000000100000001000000010000000100000001000000010000000116179052600c016101f2565b5060805b6101408110156102f557858101607f19810151606f19820151603f1983015160171984015118911818600281901b7ffffffffcfffffffcfffffffcfffffffcfffffffcfffffffcfffffffcfffffffc16601e9190911c7c030000000300000003000000030000000300000003000000030000000316179052601801610275565b508160008060005b60508110156104325760148104801561032d576001811461034e576002811461036d5760038114610391576103ac565b602885901c605086901c8118607887901c16189350635a82799992506103ac565b8460501c8560781c189350838560281c189350636ed9eba192506103ac565b605085901c607886901c818117602888901c169116179350638f1bbcdc92506103ac565b8460501c8560781c189350838560281c18935063ca62c1d692505b50601f8460bb1c168063ffffffe086609b1c1617905080840190508063ffffffff86160190508083019050808260021b8b015160e01c0190508060a01b8560281c179450633fffffff8560521c1663c00000008660321c161760501b77ffffffff00ffffffff000000000000ffffffff00ffffffff8616179450506001810190506102fd565b5050509190910177ffffffff00ffffffff00ffffffff00ffffffff00ffffffff1690604001610186565b5063ffffffff811667ffffffff000000008260081c166bffffffff00000000000000008360101c166fffffffff0000000000000000000000008460181c1673ffffffff000000000000000000000000000000008560201c161717171760601b94505050505091905056fea165627a7a72305820227af8b272b9b0e3d345f580ebcde55f50e3e8b7ecafabffcadb92e55e4de68e0029",
                "nonce" : "0x00",
                "storage" : {
                }
            }
        },
        "sealEngine" : "NoProof"
    }
}