{
    "structarray_alloc_d0g0v0_Berlin" : {
        "_info" : {
            "comment" : "",
            "filling-rpc-server" : "evm version 1.11.0-unstable-262bd38f-20221210",
            "filling-tool-version" : "retesteth-0.2.3-postmerge+commit.17808a69.Linux.g++",
            "generatedTestHash" : "aa4acc5157c85dc05fcbb0b0fe806d26f1c7662393949362b1ce4c086d97503d",
            "lllcversion" : "Error getting LLLC Version",
            "solidity" : "Version: 0.8.17-develop.2022.9.30+commit.8df45f5f.Linux.clang",
            "source" : "tmp/main/structarray_allocFiller.yml",
            "sourceHash" : "eeb793ce693c27d67211c90dfb57974bf740350f7fff928fc210b5ed03cf7a86"
        },
        "blocks" : [
            {
                "blockHeader" : {
                    "bloom" : "0x00000000000000000000000000000000000000000000000000000000000000000000000000000000000000000000000000000000000000000000000000000000000000000000000000000000000000000000000000000000000000000000000000000000000000000000000000000000000000000000000000000000000000000000000000000000000000000000000000000000000000000000000000000000000000000000000000000000000000000000000000000000000000000000000000000000000000000000000000000000000000000000000000000000000000000000000000000000000000000000000000000000000000000000000000000000",
                    "coinbase" : "0xa94f5374fce5edbc8e2a8697c15331677e6ebf0b",
                    "difficulty" : "0x020000",
                    "extraData" : "0x00",
                    "gasLimit" : "0x3b9aca00",
                    "gasUsed" : "0x1ad6ac",
                    "hash" : "0x9bbfc991481927ba2ae628bade773364cb24f63abf1dff6f5c747ec722b66c38",
                    "mixHash" : "0x0000000000000000000000000000000000000000000000000000000000000000",
                    "nonce" : "0x0000000000000000",
                    "number" : "0x01",
                    "parentHash" : "0xa3cd35017741225354a131aae2bf97316383ea87e8dba6389d4850f592f11ff5",
                    "receiptTrie" : "0x9b8acf028bcc405dfd3501dca1a97262c34f95c8aa36ec201dc69125e5c664c1",
                    "stateRoot" : "0x11a4330ff24d1aa3c1e5bfcc8bc9138c54f18e4df7f1aaa20bfc11fca3ae4913",
                    "timestamp" : "0x61a8d289",
                    "transactionsTrie" : "0xba1cc571043c187f6ac6f7087f9f1700ca6b9a83f10e3edc23dc97995f4aff06",
                    "uncleHash" : "0x1dcc4de8dec75d7aab85b567b6ccd41ad312451b948a7413f0a142fd40d49347"
                },
                "rlp" : "0xf90288f901fba0a3cd35017741225354a131aae2bf97316383ea87e8dba6389d4850f592f11ff5a01dcc4de8dec75d7aab85b567b6ccd41ad312451b948a7413f0a142fd40d4934794a94f5374fce5edbc8e2a8697c15331677e6ebf0ba011a4330ff24d1aa3c1e5bfcc8bc9138c54f18e4df7f1aaa20bfc11fca3ae4913a0ba1cc571043c187f6ac6f7087f9f1700ca6b9a83f10e3edc23dc97995f4aff06a09b8acf028bcc405dfd3501dca1a97262c34f95c8aa36ec201dc69125e5c664c1b90100000000000000000000000000000000000000000000000000000000000000000000000000000000000000000000000000000000000000000000000000000000000000000000000000000000000000000000000000000000000000000000000000000000000000000000000000000000000000000000000000000000000000000000000000000000000000000000000000000000000000000000000000000000000000000000000000000000000000000000000000000000000000000000000000000000000000000000000000000000000000000000000000000000000000000000000000000000000000000000000000000000000000000000000000000000008302000001843b9aca00831ad6ac8461a8d28900a00000000000000000000000000000000000000000000000000000000000000000880000000000000000f887f8858001843b9aca0094be7c43a58000000000000000000000000000000180a48acc538e0000000000000000000000000000000000000000000000000000000000000d051ba08e4526711fa8fbfc74174cf35c001c70e530fa53b424bcdcaceb689859096a44a02504289896577b242fec7a167776776cb8760678edf8005802f1798c9f7c57a4c0",
                "transactions" : [
                    {
                        "data" : "0x8acc538e0000000000000000000000000000000000000000000000000000000000000d05",
                        "gasLimit" : "0x3b9aca00",
                        "gasPrice" : "0x01",
                        "nonce" : "0x00",
                        "r" : "0x8e4526711fa8fbfc74174cf35c001c70e530fa53b424bcdcaceb689859096a44",
                        "s" : "0x2504289896577b242fec7a167776776cb8760678edf8005802f1798c9f7c57a4",
                        "sender" : "0xa94f5374fce5edbc8e2a8697c15331677e6ebf0b",
                        "to" : "0xbe7c43a580000000000000000000000000000001",
                        "v" : "0x1b",
                        "value" : "0x00"
                    }
                ],
                "uncleHeaders" : [
                ]
            }
        ],
        "genesisBlockHeader" : {
            "bloom" : "0x00000000000000000000000000000000000000000000000000000000000000000000000000000000000000000000000000000000000000000000000000000000000000000000000000000000000000000000000000000000000000000000000000000000000000000000000000000000000000000000000000000000000000000000000000000000000000000000000000000000000000000000000000000000000000000000000000000000000000000000000000000000000000000000000000000000000000000000000000000000000000000000000000000000000000000000000000000000000000000000000000000000000000000000000000000000",
            "coinbase" : "0xa94f5374fce5edbc8e2a8697c15331677e6ebf0b",
            "difficulty" : "0x01",
            "extraData" : "0x00",
            "gasLimit" : "0x3b9aca00",
            "gasUsed" : "0x00",
            "hash" : "0xa3cd35017741225354a131aae2bf97316383ea87e8dba6389d4850f592f11ff5",
            "mixHash" : "0x0000000000000000000000000000000000000000000000000000000000000000",
            "nonce" : "0x0000000000000000",
            "number" : "0x00",
            "parentHash" : "0x0000000000000000000000000000000000000000000000000000000000000000",
            "receiptTrie" : "0x56e81f171bcc55a6ff8345e692c0f86e5b48e01b996cadc001622fb5e363b421",
            "stateRoot" : "0x8b3823b583dee1d0dd364ba44099da0e19db254e6738ea9b1d712e2171eb882b",
            "timestamp" : "0x00",
            "transactionsTrie" : "0x56e81f171bcc55a6ff8345e692c0f86e5b48e01b996cadc001622fb5e363b421",
            "uncleHash" : "0x1dcc4de8dec75d7aab85b567b6ccd41ad312451b948a7413f0a142fd40d49347"
        },
        "genesisRLP" : "0xf901f6f901f1a00000000000000000000000000000000000000000000000000000000000000000a01dcc4de8dec75d7aab85b567b6ccd41ad312451b948a7413f0a142fd40d4934794a94f5374fce5edbc8e2a8697c15331677e6ebf0ba08b3823b583dee1d0dd364ba44099da0e19db254e6738ea9b1d712e2171eb882ba056e81f171bcc55a6ff8345e692c0f86e5b48e01b996cadc001622fb5e363b421a056e81f171bcc55a6ff8345e692c0f86e5b48e01b996cadc001622fb5e363b421b90100000000000000000000000000000000000000000000000000000000000000000000000000000000000000000000000000000000000000000000000000000000000000000000000000000000000000000000000000000000000000000000000000000000000000000000000000000000000000000000000000000000000000000000000000000000000000000000000000000000000000000000000000000000000000000000000000000000000000000000000000000000000000000000000000000000000000000000000000000000000000000000000000000000000000000000000000000000000000000000000000000000000000000000000000000000000180843b9aca00808000a00000000000000000000000000000000000000000000000000000000000000000880000000000000000c0c0",
        "lastblockhash" : "0x9bbfc991481927ba2ae628bade773364cb24f63abf1dff6f5c747ec722b66c38",
        "network" : "Berlin",
        "postState" : {
            "0xa94f5374fce5edbc8e2a8697c15331677e6ebf0b" : {
                "balance" : "0x1bc16d678a62ca00",
                "code" : "0x",
                "nonce" : "0x01",
                "storage" : {
                }
            },
            "0xbe7c43a580000000000000000000000000000001" : {
                "balance" : "0x00",
                "code" : "0x608060405234801561001057600080fd5b506004361061002b5760003560e01c80638acc538e14610030575b600080fd5b61004a60048036038101906100459190610134565b610060565b6040516100579190610170565b60405180910390f35b6000808267ffffffffffffffff81111561007d5761007c61018b565b5b6040519080825280602002602001820160405280156100b657816020015b6100a36100c3565b81526020019060019003908161009b5790505b5090508051915050919050565b6040518060c001604052806000815260200160008152602001600081526020016000815260200160008152602001600081525090565b600080fd5b6000819050919050565b610111816100fe565b811461011c57600080fd5b50565b60008135905061012e81610108565b92915050565b60006020828403121561014a576101496100f9565b5b60006101588482850161011f565b91505092915050565b61016a816100fe565b82525050565b60006020820190506101856000830184610161565b92915050565b7f4e487b7100000000000000000000000000000000000000000000000000000000600052604160045260246000fdfea26469706673582212203db290c1401aded71126025073dbf6e96da5594af56ce4578db8ac17b429c5ed64736f6c63430008090033",
                "nonce" : "0x00",
                "storage" : {
                }
            }
        },
        "pre" : {
            "0xa94f5374fce5edbc8e2a8697c15331677e6ebf0b" : {
                "balance" : "0x3b9aca00",
                "code" : "0x",
                "nonce" : "0x00",
                "storage" : {
                }
            },
            "0xbe7c43a580000000000000000000000000000001" : {
                "balance" : "0x00",
                "code" : "0x608060405234801561001057600080fd5b506004361061002b5760003560e01c80638acc538e14610030575b600080fd5b61004a60048036038101906100459190610134565b610060565b6040516100579190610170565b60405180910390f35b6000808267ffffffffffffffff81111561007d5761007c61018b565b5b6040519080825280602002602001820160405280156100b657816020015b6100a36100c3565b81526020019060019003908161009b5790505b5090508051915050919050565b6040518060c001604052806000815260200160008152602001600081526020016000815260200160008152602001600081525090565b600080fd5b6000819050919050565b610111816100fe565b811461011c57600080fd5b50565b60008135905061012e81610108565b92915050565b60006020828403121561014a576101496100f9565b5b60006101588482850161011f565b91505092915050565b61016a816100fe565b82525050565b60006020820190506101856000830184610161565b92915050565b7f4e487b7100000000000000000000000000000000000000000000000000000000600052604160045260246000fdfea26469706673582212203db290c1401aded71126025073dbf6e96da5594af56ce4578db8ac17b429c5ed64736f6c63430008090033",
                "nonce" : "0x00",
                "storage" : {
                }
            }
        },
        "sealEngine" : "NoProof"
    }
}