{
    "swap_math_d0g0v0_Berlin" : {
        "_info" : {
            "comment" : "",
            "filling-rpc-server" : "evm version 1.11.0-unstable-262bd38f-20221210",
            "filling-tool-version" : "retesteth-0.2.3-postmerge+commit.17808a69.Linux.g++",
            "generatedTestHash" : "bcbb68b44fb8aca00919a638e6dcc9bc1acb7ae7271e9c2329d4c213b1605885",
            "lllcversion" : "Error getting LLLC Version",
            "solidity" : "Version: 0.8.17-develop.2022.9.30+commit.8df45f5f.Linux.clang",
            "source" : "tmp/main/swap_mathFiller.yml",
            "sourceHash" : "1efc36f001879c3d76a717c3de03b38a6b7ef64e9e075bd1d23e3a2388cd205e"
        },
        "blocks" : [
            {
                "blockHeader" : {
                    "bloom" : "0x00000000000000000000000000000000000000000000000000000000000000000000000000000000000000000000000000000000000000000000000000000000000000000000000000000000000000000000000000000000000000000000000000000000000000000000000000000000000000000000000000000000000000000000000000000000000000000000000000000000000000000000000000000000000000000000000000000000000000000000000000000000000000000000000000000000000000000000000000000000000000000000000000000000000000000000000000000000000000000000000000000000000000000000000000000000",
                    "coinbase" : "0xa94f5374fce5edbc8e2a8697c15331677e6ebf0b",
                    "difficulty" : "0x020000",
                    "extraData" : "0x00",
                    "gasLimit" : "0x3b9aca00",
                    "gasUsed" : "0x6283",
                    "hash" : "0x68d6db03be3990b86c66ea6ceb1bba3e36e6fc8b883bf7e8f216f9c809e0ee68",
                    "mixHash" : "0x0000000000000000000000000000000000000000000000000000000000000000",
                    "nonce" : "0x0000000000000000",
                    "number" : "0x01",
                    "parentHash" : "0xeb48796a4e1556bebc91e4fa5ac6cf2b0eecdc01c96b4657552879e7b5a4bf63",
                    "receiptTrie" : "0x0130c1515a539e946b3eb54025fc0d90b63e0e00e01e23fe655e5e5d3eed3856",
                    "stateRoot" : "0x917acfd8586b87330476da192e928a9c0cb04127e268656ad80410d2936e9707",
                    "timestamp" : "0x61a8d289",
                    "transactionsTrie" : "0xe772b0afbfc0f836021ac547cb49e03e0fec73cad4ff715415aa7563baf328ad",
                    "uncleHash" : "0x1dcc4de8dec75d7aab85b567b6ccd41ad312451b948a7413f0a142fd40d49347"
                },
                "rlp" : "0xf9030af901faa0eb48796a4e1556bebc91e4fa5ac6cf2b0eecdc01c96b4657552879e7b5a4bf63a01dcc4de8dec75d7aab85b567b6ccd41ad312451b948a7413f0a142fd40d4934794a94f5374fce5edbc8e2a8697c15331677e6ebf0ba0917acfd8586b87330476da192e928a9c0cb04127e268656ad80410d2936e9707a0e772b0afbfc0f836021ac547cb49e03e0fec73cad4ff715415aa7563baf328ada00130c1515a539e946b3eb54025fc0d90b63e0e00e01e23fe655e5e5d3eed3856b90100000000000000000000000000000000000000000000000000000000000000000000000000000000000000000000000000000000000000000000000000000000000000000000000000000000000000000000000000000000000000000000000000000000000000000000000000000000000000000000000000000000000000000000000000000000000000000000000000000000000000000000000000000000000000000000000000000000000000000000000000000000000000000000000000000000000000000000000000000000000000000000000000000000000000000000000000000000000000000000000000000000000000000000000000000000008302000001843b9aca008262838461a8d28900a00000000000000000000000000000000000000000000000000000000000000000880000000000000000f90109f901068001843b9aca0094be7c43a58000000000000000000000000000000180b8a4100d3f7400000000000000000000000000000000000000010000000000000000000000000000000000000000000000000000000000000003298b075b4b6a5240945790610000000000000000000000000000000000000000000000001bc16d674ec800000000000000000000000000000000000000000000000000000de0b6b3a764000000000000000000000000000000000000000000000000000000000000000002581ba008623eb5249f4b1465f22c79260603188594a7439cb426171a21901342a44e85a031a80ebcb27fc9a82196eac192ba89979063982305715031a51adf2910f2c0afc0",
                "transactions" : [
                    {
                        "data" : "0x100d3f7400000000000000000000000000000000000000010000000000000000000000000000000000000000000000000000000000000003298b075b4b6a5240945790610000000000000000000000000000000000000000000000001bc16d674ec800000000000000000000000000000000000000000000000000000de0b6b3a76400000000000000000000000000000000000000000000000000000000000000000258",
                        "gasLimit" : "0x3b9aca00",
                        "gasPrice" : "0x01",
                        "nonce" : "0x00",
                        "r" : "0x08623eb5249f4b1465f22c79260603188594a7439cb426171a21901342a44e85",
                        "s" : "0x31a80ebcb27fc9a82196eac192ba89979063982305715031a51adf2910f2c0af",
                        "sender" : "0xa94f5374fce5edbc8e2a8697c15331677e6ebf0b",
                        "to" : "0xbe7c43a580000000000000000000000000000001",
                        "v" : "0x1b",
                        "value" : "0x00"
                    }
                ],
                "uncleHeaders" : [
                ]
            }
        ],
        "genesisBlockHeader" : {
            "bloom" : "0x00000000000000000000000000000000000000000000000000000000000000000000000000000000000000000000000000000000000000000000000000000000000000000000000000000000000000000000000000000000000000000000000000000000000000000000000000000000000000000000000000000000000000000000000000000000000000000000000000000000000000000000000000000000000000000000000000000000000000000000000000000000000000000000000000000000000000000000000000000000000000000000000000000000000000000000000000000000000000000000000000000000000000000000000000000000",
            "coinbase" : "0xa94f5374fce5edbc8e2a8697c15331677e6ebf0b",
            "difficulty" : "0x01",
            "extraData" : "0x00",
            "gasLimit" : "0x3b9aca00",
            "gasUsed" : "0x00",
            "hash" : "0xeb48796a4e1556bebc91e4fa5ac6cf2b0eecdc01c96b4657552879e7b5a4bf63",
            "mixHash" : "0x0000000000000000000000000000000000000000000000000000000000000000",
            "nonce" : "0x0000000000000000",
            "number" : "0x00",
            "parentHash" : "0x0000000000000000000000000000000000000000000000000000000000000000",
            "receiptTrie" : "0x56e81f171bcc55a6ff8345e692c0f86e5b48e01b996cadc001622fb5e363b421",
            "stateRoot" : "0x0cdc4a0c5f680d6890b1432b51d7241694516594978918c1aa83a21aa10376dd",
            "timestamp" : "0x00",
            "transactionsTrie" : "0x56e81f171bcc55a6ff8345e692c0f86e5b48e01b996cadc001622fb5e363b421",
            "uncleHash" : "0x1dcc4de8dec75d7aab85b567b6ccd41ad312451b948a7413f0a142fd40d49347"
        },
        "genesisRLP" : "0xf901f6f901f1a00000000000000000000000000000000000000000000000000000000000000000a01dcc4de8dec75d7aab85b567b6ccd41ad312451b948a7413f0a142fd40d4934794a94f5374fce5edbc8e2a8697c15331677e6ebf0ba00cdc4a0c5f680d6890b1432b51d7241694516594978918c1aa83a21aa10376dda056e81f171bcc55a6ff8345e692c0f86e5b48e01b996cadc001622fb5e363b421a056e81f171bcc55a6ff8345e692c0f86e5b48e01b996cadc001622fb5e363b421b90100000000000000000000000000000000000000000000000000000000000000000000000000000000000000000000000000000000000000000000000000000000000000000000000000000000000000000000000000000000000000000000000000000000000000000000000000000000000000000000000000000000000000000000000000000000000000000000000000000000000000000000000000000000000000000000000000000000000000000000000000000000000000000000000000000000000000000000000000000000000000000000000000000000000000000000000000000000000000000000000000000000000000000000000000000000000180843b9aca00808000a00000000000000000000000000000000000000000000000000000000000000000880000000000000000c0c0",
        "lastblockhash" : "0x68d6db03be3990b86c66ea6ceb1bba3e36e6fc8b883bf7e8f216f9c809e0ee68",
        "network" : "Berlin",
        "postState" : {
            "0xa94f5374fce5edbc8e2a8697c15331677e6ebf0b" : {
                "balance" : "0x1bc16d678a62ca00",
                "code" : "0x",
                "nonce" : "0x01",
                "storage" : {
                }
            },
            "0xbe7c43a580000000000000000000000000000001" : {
                "balance" : "0x00",
                "code" : "0x608060405234801561001057600080fd5b506004361061002b5760003560e01c8063100d3f7414610030575b600080fd5b610081600480360360a081101561004657600080fd5b5080356001600160a01b039081169160208101359091169060408101356001600160801b0316906060810135906080013562ffffff166100b1565b604080516001600160a01b0390951685526020850193909352838301919091526060830152519081900360800190f35b60008080806001600160a01b03808916908a1610158187128015906101365760006100ea8989620f42400362ffffff16620f42406102a3565b905082610103576100fe8c8c8c6001610353565b610110565b6101108b8d8c60016103ce565b9550858110610121578a9650610130565b61012d8c8b8386610479565b96505b50610180565b8161014d576101488b8b8b60006103ce565b61015a565b61015a8a8c8b6000610353565b935083886000031061016e57899550610180565b61017d8b8a8a600003856104c5565b95505b6001600160a01b038a81169087161482156101e35780801561019f5750815b6101b5576101b0878d8c60016103ce565b6101b7565b855b95508080156101c4575081155b6101da576101d5878d8c6000610353565b6101dc565b845b945061022d565b8080156101ed5750815b610203576101fe8c888c6001610353565b610205565b855b9550808015610212575081155b610228576102238c888c60006103ce565b61022a565b845b94505b8115801561023d57508860000385115b15610249578860000394505b81801561026857508a6001600160a01b0316876001600160a01b031614155b15610277578589039350610294565b610291868962ffffff168a620f42400362ffffff16610511565b93505b50505095509550955095915050565b60008080600019858709868602925082811090839003039050806102d957600084116102ce57600080fd5b50829004905061034c565b8084116102e557600080fd5b6000848688096000868103871696879004966002600389028118808a02820302808a02820302808a02820302808a02820302808a02820302808a02909103029181900381900460010186841190950394909402919094039290920491909117919091029150505b9392505050565b6000836001600160a01b0316856001600160a01b03161115610373579293925b816103a05761039b836001600160801b03168686036001600160a01b0316600160601b6102a3565b6103c3565b6103c3836001600160801b03168686036001600160a01b0316600160601b610511565b90505b949350505050565b6000836001600160a01b0316856001600160a01b031611156103ee579293925b600160601b600160e01b03606084901b166001600160a01b03868603811690871661041857600080fd5b8361044857866001600160a01b031661043b8383896001600160a01b03166102a3565b8161044257fe5b0461046e565b61046e61045f8383896001600160a01b0316610511565b886001600160a01b031661054b565b979650505050505050565b600080856001600160a01b03161161049057600080fd5b6000846001600160801b0316116104a657600080fd5b816104b85761039b8585856001610556565b6103c38585856001610637565b600080856001600160a01b0316116104dc57600080fd5b6000846001600160801b0316116104f257600080fd5b816105045761039b8585856000610637565b6103c38585856000610556565b600061051e8484846102a3565b90506000828061052a57fe5b848609111561034c57600019811061054157600080fd5b6001019392505050565b808204910615150190565b600081156105c95760006001600160a01b0384111561058c5761058784600160601b876001600160801b03166102a3565b6105a4565b6001600160801b038516606085901b816105a257fe5b045b90506105c16105bc6001600160a01b0388168361071a565b610730565b9150506103c6565b60006001600160a01b038411156105f7576105f284600160601b876001600160801b0316610511565b61060e565b61060e606085901b6001600160801b03871661054b565b905080866001600160a01b03161161062557600080fd5b6001600160a01b0386160390506103c6565b6000826106455750836103c6565b600160601b600160e01b03606085901b1682156106d3576001600160a01b0386168481029085828161067357fe5b0414156106a4578181018281106106a25761069883896001600160a01b031683610511565b93505050506103c6565b505b6106ca826106c5878a6001600160a01b031686816106be57fe5b049061071a565b61054b565b925050506103c6565b6001600160a01b038616848102908582816106ea57fe5b041480156106f757508082115b61070057600080fd5b8082036106986105bc846001600160a01b038b1684610511565b8082018281101561072a57600080fd5b92915050565b806001600160a01b038116811461074657600080fd5b91905056fea2646970667358221220bb65d86c3677a48866008eb6782a6fadbf9ba12b33a2e9f96d1e4f488809c1a364736f6c63430007060033",
                "nonce" : "0x00",
                "storage" : {
                }
            }
        },
        "pre" : {
            "0xa94f5374fce5edbc8e2a8697c15331677e6ebf0b" : {
                "balance" : "0x3b9aca00",
                "code" : "0x",
                "nonce" : "0x00",
                "storage" : {
                }
            },
            "0xbe7c43a580000000000000000000000000000001" : {
                "balance" : "0x00",
                "code" : "0x608060405234801561001057600080fd5b506004361061002b5760003560e01c8063100d3f7414610030575b600080fd5b610081600480360360a081101561004657600080fd5b5080356001600160a01b039081169160208101359091169060408101356001600160801b0316906060810135906080013562ffffff166100b1565b604080516001600160a01b0390951685526020850193909352838301919091526060830152519081900360800190f35b60008080806001600160a01b03808916908a1610158187128015906101365760006100ea8989620f42400362ffffff16620f42406102a3565b905082610103576100fe8c8c8c6001610353565b610110565b6101108b8d8c60016103ce565b9550858110610121578a9650610130565b61012d8c8b8386610479565b96505b50610180565b8161014d576101488b8b8b60006103ce565b61015a565b61015a8a8c8b6000610353565b935083886000031061016e57899550610180565b61017d8b8a8a600003856104c5565b95505b6001600160a01b038a81169087161482156101e35780801561019f5750815b6101b5576101b0878d8c60016103ce565b6101b7565b855b95508080156101c4575081155b6101da576101d5878d8c6000610353565b6101dc565b845b945061022d565b8080156101ed5750815b610203576101fe8c888c6001610353565b610205565b855b9550808015610212575081155b610228576102238c888c60006103ce565b61022a565b845b94505b8115801561023d57508860000385115b15610249578860000394505b81801561026857508a6001600160a01b0316876001600160a01b031614155b15610277578589039350610294565b610291868962ffffff168a620f42400362ffffff16610511565b93505b50505095509550955095915050565b60008080600019858709868602925082811090839003039050806102d957600084116102ce57600080fd5b50829004905061034c565b8084116102e557600080fd5b6000848688096000868103871696879004966002600389028118808a02820302808a02820302808a02820302808a02820302808a02820302808a02909103029181900381900460010186841190950394909402919094039290920491909117919091029150505b9392505050565b6000836001600160a01b0316856001600160a01b03161115610373579293925b816103a05761039b836001600160801b03168686036001600160a01b0316600160601b6102a3565b6103c3565b6103c3836001600160801b03168686036001600160a01b0316600160601b610511565b90505b949350505050565b6000836001600160a01b0316856001600160a01b031611156103ee579293925b600160601b600160e01b03606084901b166001600160a01b03868603811690871661041857600080fd5b8361044857866001600160a01b031661043b8383896001600160a01b03166102a3565b8161044257fe5b0461046e565b61046e61045f8383896001600160a01b0316610511565b886001600160a01b031661054b565b979650505050505050565b600080856001600160a01b03161161049057600080fd5b6000846001600160801b0316116104a657600080fd5b816104b85761039b8585856001610556565b6103c38585856001610637565b600080856001600160a01b0316116104dc57600080fd5b6000846001600160801b0316116104f257600080fd5b816105045761039b8585856000610637565b6103c38585856000610556565b600061051e8484846102a3565b90506000828061052a57fe5b848609111561034c57600019811061054157600080fd5b6001019392505050565b808204910615150190565b600081156105c95760006001600160a01b0384111561058c5761058784600160601b876001600160801b03166102a3565b6105a4565b6001600160801b038516606085901b816105a257fe5b045b90506105c16105bc6001600160a01b0388168361071a565b610730565b9150506103c6565b60006001600160a01b038411156105f7576105f284600160601b876001600160801b0316610511565b61060e565b61060e606085901b6001600160801b03871661054b565b905080866001600160a01b03161161062557600080fd5b6001600160a01b0386160390506103c6565b6000826106455750836103c6565b600160601b600160e01b03606085901b1682156106d3576001600160a01b0386168481029085828161067357fe5b0414156106a4578181018281106106a25761069883896001600160a01b031683610511565b93505050506103c6565b505b6106ca826106c5878a6001600160a01b031686816106be57fe5b049061071a565b61054b565b925050506103c6565b6001600160a01b038616848102908582816106ea57fe5b041480156106f757508082115b61070057600080fd5b8082036106986105bc846001600160a01b038b1684610511565b8082018281101561072a57600080fd5b92915050565b806001600160a01b038116811461074657600080fd5b91905056fea2646970667358221220bb65d86c3677a48866008eb6782a6fadbf9ba12b33a2e9f96d1e4f488809c1a364736f6c63430007060033",
                "nonce" : "0x00",
                "storage" : {
                }
            }
        },
        "sealEngine" : "NoProof"
    },
    "swap_math_d1g0v0_Berlin" : {
        "_info" : {
            "comment" : "",
            "filling-rpc-server" : "evm version 1.11.0-unstable-262bd38f-20221210",
            "filling-tool-version" : "retesteth-0.2.3-postmerge+commit.17808a69.Linux.g++",
            "generatedTestHash" : "72b0e619ac711b657aa6dd055f8a4df924974d95c43fca4e5311ac021eb3f82c",
            "lllcversion" : "Error getting LLLC Version",
            "solidity" : "Version: 0.8.17-develop.2022.9.30+commit.8df45f5f.Linux.clang",
            "source" : "tmp/main/swap_mathFiller.yml",
            "sourceHash" : "1efc36f001879c3d76a717c3de03b38a6b7ef64e9e075bd1d23e3a2388cd205e"
        },
        "blocks" : [
            {
                "blockHeader" : {
                    "bloom" : "0x00000000000000000000000000000000000000000000000000000000000000000000000000000000000000000000000000000000000000000000000000000000000000000000000000000000000000000000000000000000000000000000000000000000000000000000000000000000000000000000000000000000000000000000000000000000000000000000000000000000000000000000000000000000000000000000000000000000000000000000000000000000000000000000000000000000000000000000000000000000000000000000000000000000000000000000000000000000000000000000000000000000000000000000000000000000",
                    "coinbase" : "0xa94f5374fce5edbc8e2a8697c15331677e6ebf0b",
                    "difficulty" : "0x020000",
                    "extraData" : "0x00",
                    "gasLimit" : "0x3b9aca00",
                    "gasUsed" : "0x6459",
                    "hash" : "0xb3686fd95279141cad14379e288baac6c3ded75f9feb3578f1de9227d5a5c655",
                    "mixHash" : "0x0000000000000000000000000000000000000000000000000000000000000000",
                    "nonce" : "0x0000000000000000",
                    "number" : "0x01",
                    "parentHash" : "0xeb48796a4e1556bebc91e4fa5ac6cf2b0eecdc01c96b4657552879e7b5a4bf63",
                    "receiptTrie" : "0xbafd54613fd5eed1c388c03c2fa244c8fd7377bfcfb0e053c4e89ea13fea0820",
                    "stateRoot" : "0x917acfd8586b87330476da192e928a9c0cb04127e268656ad80410d2936e9707",
                    "timestamp" : "0x61a8d289",
                    "transactionsTrie" : "0x2d19559ed8abced4891eecca1465d341dfd29989ac0e85f85548691b48f74711",
                    "uncleHash" : "0x1dcc4de8dec75d7aab85b567b6ccd41ad312451b948a7413f0a142fd40d49347"
                },
                "rlp" : "0xf9030af901faa0eb48796a4e1556bebc91e4fa5ac6cf2b0eecdc01c96b4657552879e7b5a4bf63a01dcc4de8dec75d7aab85b567b6ccd41ad312451b948a7413f0a142fd40d4934794a94f5374fce5edbc8e2a8697c15331677e6ebf0ba0917acfd8586b87330476da192e928a9c0cb04127e268656ad80410d2936e9707a02d19559ed8abced4891eecca1465d341dfd29989ac0e85f85548691b48f74711a0bafd54613fd5eed1c388c03c2fa244c8fd7377bfcfb0e053c4e89ea13fea0820b90100000000000000000000000000000000000000000000000000000000000000000000000000000000000000000000000000000000000000000000000000000000000000000000000000000000000000000000000000000000000000000000000000000000000000000000000000000000000000000000000000000000000000000000000000000000000000000000000000000000000000000000000000000000000000000000000000000000000000000000000000000000000000000000000000000000000000000000000000000000000000000000000000000000000000000000000000000000000000000000000000000000000000000000000000000000008302000001843b9aca008264598461a8d28900a00000000000000000000000000000000000000000000000000000000000000000880000000000000000f90109f901068001843b9aca0094be7c43a58000000000000000000000000000000180b8a4100d3f740000000000000000000000000000000000000001000000000000000000000000000000000000000000000000000000000000000a0000000000000000000000000000000000000000000000000000000000000000000000001bc16d674ec80000fffffffffffffffffffffffffffffffffffffffffffffffff21f494c589c000000000000000000000000000000000000000000000000000000000000000002581ba0f9d90a0452817875d937f81dd5e11c4306ecdc839a26752df189d5ef9d80eafba028fdf0552f236c2d349405ead5af32a25344e0fd0776c26af62be964b1938ed2c0",
                "transactions" : [
                    {
                        "data" : "0x100d3f740000000000000000000000000000000000000001000000000000000000000000000000000000000000000000000000000000000a0000000000000000000000000000000000000000000000000000000000000000000000001bc16d674ec80000fffffffffffffffffffffffffffffffffffffffffffffffff21f494c589c00000000000000000000000000000000000000000000000000000000000000000258",
                        "gasLimit" : "0x3b9aca00",
                        "gasPrice" : "0x01",
                        "nonce" : "0x00",
                        "r" : "0xf9d90a0452817875d937f81dd5e11c4306ecdc839a26752df189d5ef9d80eafb",
                        "s" : "0x28fdf0552f236c2d349405ead5af32a25344e0fd0776c26af62be964b1938ed2",
                        "sender" : "0xa94f5374fce5edbc8e2a8697c15331677e6ebf0b",
                        "to" : "0xbe7c43a580000000000000000000000000000001",
                        "v" : "0x1b",
                        "value" : "0x00"
                    }
                ],
                "uncleHeaders" : [
                ]
            }
        ],
        "genesisBlockHeader" : {
            "bloom" : "0x00000000000000000000000000000000000000000000000000000000000000000000000000000000000000000000000000000000000000000000000000000000000000000000000000000000000000000000000000000000000000000000000000000000000000000000000000000000000000000000000000000000000000000000000000000000000000000000000000000000000000000000000000000000000000000000000000000000000000000000000000000000000000000000000000000000000000000000000000000000000000000000000000000000000000000000000000000000000000000000000000000000000000000000000000000000",
            "coinbase" : "0xa94f5374fce5edbc8e2a8697c15331677e6ebf0b",
            "difficulty" : "0x01",
            "extraData" : "0x00",
            "gasLimit" : "0x3b9aca00",
            "gasUsed" : "0x00",
            "hash" : "0xeb48796a4e1556bebc91e4fa5ac6cf2b0eecdc01c96b4657552879e7b5a4bf63",
            "mixHash" : "0x0000000000000000000000000000000000000000000000000000000000000000",
            "nonce" : "0x0000000000000000",
            "number" : "0x00",
            "parentHash" : "0x0000000000000000000000000000000000000000000000000000000000000000",
            "receiptTrie" : "0x56e81f171bcc55a6ff8345e692c0f86e5b48e01b996cadc001622fb5e363b421",
            "stateRoot" : "0x0cdc4a0c5f680d6890b1432b51d7241694516594978918c1aa83a21aa10376dd",
            "timestamp" : "0x00",
            "transactionsTrie" : "0x56e81f171bcc55a6ff8345e692c0f86e5b48e01b996cadc001622fb5e363b421",
            "uncleHash" : "0x1dcc4de8dec75d7aab85b567b6ccd41ad312451b948a7413f0a142fd40d49347"
        },
        "genesisRLP" : "0xf901f6f901f1a00000000000000000000000000000000000000000000000000000000000000000a01dcc4de8dec75d7aab85b567b6ccd41ad312451b948a7413f0a142fd40d4934794a94f5374fce5edbc8e2a8697c15331677e6ebf0ba00cdc4a0c5f680d6890b1432b51d7241694516594978918c1aa83a21aa10376dda056e81f171bcc55a6ff8345e692c0f86e5b48e01b996cadc001622fb5e363b421a056e81f171bcc55a6ff8345e692c0f86e5b48e01b996cadc001622fb5e363b421b90100000000000000000000000000000000000000000000000000000000000000000000000000000000000000000000000000000000000000000000000000000000000000000000000000000000000000000000000000000000000000000000000000000000000000000000000000000000000000000000000000000000000000000000000000000000000000000000000000000000000000000000000000000000000000000000000000000000000000000000000000000000000000000000000000000000000000000000000000000000000000000000000000000000000000000000000000000000000000000000000000000000000000000000000000000000000180843b9aca00808000a00000000000000000000000000000000000000000000000000000000000000000880000000000000000c0c0",
        "lastblockhash" : "0xb3686fd95279141cad14379e288baac6c3ded75f9feb3578f1de9227d5a5c655",
        "network" : "Berlin",
        "postState" : {
            "0xa94f5374fce5edbc8e2a8697c15331677e6ebf0b" : {
                "balance" : "0x1bc16d678a62ca00",
                "code" : "0x",
                "nonce" : "0x01",
                "storage" : {
                }
            },
            "0xbe7c43a580000000000000000000000000000001" : {
                "balance" : "0x00",
                "code" : "0x608060405234801561001057600080fd5b506004361061002b5760003560e01c8063100d3f7414610030575b600080fd5b610081600480360360a081101561004657600080fd5b5080356001600160a01b039081169160208101359091169060408101356001600160801b0316906060810135906080013562ffffff166100b1565b604080516001600160a01b0390951685526020850193909352838301919091526060830152519081900360800190f35b60008080806001600160a01b03808916908a1610158187128015906101365760006100ea8989620f42400362ffffff16620f42406102a3565b905082610103576100fe8c8c8c6001610353565b610110565b6101108b8d8c60016103ce565b9550858110610121578a9650610130565b61012d8c8b8386610479565b96505b50610180565b8161014d576101488b8b8b60006103ce565b61015a565b61015a8a8c8b6000610353565b935083886000031061016e57899550610180565b61017d8b8a8a600003856104c5565b95505b6001600160a01b038a81169087161482156101e35780801561019f5750815b6101b5576101b0878d8c60016103ce565b6101b7565b855b95508080156101c4575081155b6101da576101d5878d8c6000610353565b6101dc565b845b945061022d565b8080156101ed5750815b610203576101fe8c888c6001610353565b610205565b855b9550808015610212575081155b610228576102238c888c60006103ce565b61022a565b845b94505b8115801561023d57508860000385115b15610249578860000394505b81801561026857508a6001600160a01b0316876001600160a01b031614155b15610277578589039350610294565b610291868962ffffff168a620f42400362ffffff16610511565b93505b50505095509550955095915050565b60008080600019858709868602925082811090839003039050806102d957600084116102ce57600080fd5b50829004905061034c565b8084116102e557600080fd5b6000848688096000868103871696879004966002600389028118808a02820302808a02820302808a02820302808a02820302808a02820302808a02909103029181900381900460010186841190950394909402919094039290920491909117919091029150505b9392505050565b6000836001600160a01b0316856001600160a01b03161115610373579293925b816103a05761039b836001600160801b03168686036001600160a01b0316600160601b6102a3565b6103c3565b6103c3836001600160801b03168686036001600160a01b0316600160601b610511565b90505b949350505050565b6000836001600160a01b0316856001600160a01b031611156103ee579293925b600160601b600160e01b03606084901b166001600160a01b03868603811690871661041857600080fd5b8361044857866001600160a01b031661043b8383896001600160a01b03166102a3565b8161044257fe5b0461046e565b61046e61045f8383896001600160a01b0316610511565b886001600160a01b031661054b565b979650505050505050565b600080856001600160a01b03161161049057600080fd5b6000846001600160801b0316116104a657600080fd5b816104b85761039b8585856001610556565b6103c38585856001610637565b600080856001600160a01b0316116104dc57600080fd5b6000846001600160801b0316116104f257600080fd5b816105045761039b8585856000610637565b6103c38585856000610556565b600061051e8484846102a3565b90506000828061052a57fe5b848609111561034c57600019811061054157600080fd5b6001019392505050565b808204910615150190565b600081156105c95760006001600160a01b0384111561058c5761058784600160601b876001600160801b03166102a3565b6105a4565b6001600160801b038516606085901b816105a257fe5b045b90506105c16105bc6001600160a01b0388168361071a565b610730565b9150506103c6565b60006001600160a01b038411156105f7576105f284600160601b876001600160801b0316610511565b61060e565b61060e606085901b6001600160801b03871661054b565b905080866001600160a01b03161161062557600080fd5b6001600160a01b0386160390506103c6565b6000826106455750836103c6565b600160601b600160e01b03606085901b1682156106d3576001600160a01b0386168481029085828161067357fe5b0414156106a4578181018281106106a25761069883896001600160a01b031683610511565b93505050506103c6565b505b6106ca826106c5878a6001600160a01b031686816106be57fe5b049061071a565b61054b565b925050506103c6565b6001600160a01b038616848102908582816106ea57fe5b041480156106f757508082115b61070057600080fd5b8082036106986105bc846001600160a01b038b1684610511565b8082018281101561072a57600080fd5b92915050565b806001600160a01b038116811461074657600080fd5b91905056fea2646970667358221220bb65d86c3677a48866008eb6782a6fadbf9ba12b33a2e9f96d1e4f488809c1a364736f6c63430007060033",
                "nonce" : "0x00",
                "storage" : {
                }
            }
        },
        "pre" : {
            "0xa94f5374fce5edbc8e2a8697c15331677e6ebf0b" : {
                "balance" : "0x3b9aca00",
                "code" : "0x",
                "nonce" : "0x00",
                "storage" : {
                }
            },
            "0xbe7c43a580000000000000000000000000000001" : {
                "balance" : "0x00",
                "code" : "0x608060405234801561001057600080fd5b506004361061002b5760003560e01c8063100d3f7414610030575b600080fd5b610081600480360360a081101561004657600080fd5b5080356001600160a01b039081169160208101359091169060408101356001600160801b0316906060810135906080013562ffffff166100b1565b604080516001600160a01b0390951685526020850193909352838301919091526060830152519081900360800190f35b60008080806001600160a01b03808916908a1610158187128015906101365760006100ea8989620f42400362ffffff16620f42406102a3565b905082610103576100fe8c8c8c6001610353565b610110565b6101108b8d8c60016103ce565b9550858110610121578a9650610130565b61012d8c8b8386610479565b96505b50610180565b8161014d576101488b8b8b60006103ce565b61015a565b61015a8a8c8b6000610353565b935083886000031061016e57899550610180565b61017d8b8a8a600003856104c5565b95505b6001600160a01b038a81169087161482156101e35780801561019f5750815b6101b5576101b0878d8c60016103ce565b6101b7565b855b95508080156101c4575081155b6101da576101d5878d8c6000610353565b6101dc565b845b945061022d565b8080156101ed5750815b610203576101fe8c888c6001610353565b610205565b855b9550808015610212575081155b610228576102238c888c60006103ce565b61022a565b845b94505b8115801561023d57508860000385115b15610249578860000394505b81801561026857508a6001600160a01b0316876001600160a01b031614155b15610277578589039350610294565b610291868962ffffff168a620f42400362ffffff16610511565b93505b50505095509550955095915050565b60008080600019858709868602925082811090839003039050806102d957600084116102ce57600080fd5b50829004905061034c565b8084116102e557600080fd5b6000848688096000868103871696879004966002600389028118808a02820302808a02820302808a02820302808a02820302808a02820302808a02909103029181900381900460010186841190950394909402919094039290920491909117919091029150505b9392505050565b6000836001600160a01b0316856001600160a01b03161115610373579293925b816103a05761039b836001600160801b03168686036001600160a01b0316600160601b6102a3565b6103c3565b6103c3836001600160801b03168686036001600160a01b0316600160601b610511565b90505b949350505050565b6000836001600160a01b0316856001600160a01b031611156103ee579293925b600160601b600160e01b03606084901b166001600160a01b03868603811690871661041857600080fd5b8361044857866001600160a01b031661043b8383896001600160a01b03166102a3565b8161044257fe5b0461046e565b61046e61045f8383896001600160a01b0316610511565b886001600160a01b031661054b565b979650505050505050565b600080856001600160a01b03161161049057600080fd5b6000846001600160801b0316116104a657600080fd5b816104b85761039b8585856001610556565b6103c38585856001610637565b600080856001600160a01b0316116104dc57600080fd5b6000846001600160801b0316116104f257600080fd5b816105045761039b8585856000610637565b6103c38585856000610556565b600061051e8484846102a3565b90506000828061052a57fe5b848609111561034c57600019811061054157600080fd5b6001019392505050565b808204910615150190565b600081156105c95760006001600160a01b0384111561058c5761058784600160601b876001600160801b03166102a3565b6105a4565b6001600160801b038516606085901b816105a257fe5b045b90506105c16105bc6001600160a01b0388168361071a565b610730565b9150506103c6565b60006001600160a01b038411156105f7576105f284600160601b876001600160801b0316610511565b61060e565b61060e606085901b6001600160801b03871661054b565b905080866001600160a01b03161161062557600080fd5b6001600160a01b0386160390506103c6565b6000826106455750836103c6565b600160601b600160e01b03606085901b1682156106d3576001600160a01b0386168481029085828161067357fe5b0414156106a4578181018281106106a25761069883896001600160a01b031683610511565b93505050506103c6565b505b6106ca826106c5878a6001600160a01b031686816106be57fe5b049061071a565b61054b565b925050506103c6565b6001600160a01b038616848102908582816106ea57fe5b041480156106f757508082115b61070057600080fd5b8082036106986105bc846001600160a01b038b1684610511565b8082018281101561072a57600080fd5b92915050565b806001600160a01b038116811461074657600080fd5b91905056fea2646970667358221220bb65d86c3677a48866008eb6782a6fadbf9ba12b33a2e9f96d1e4f488809c1a364736f6c63430007060033",
                "nonce" : "0x00",
                "storage" : {
                }
            }
        },
        "sealEngine" : "NoProof"
    },
    "swap_math_d2g0v0_Berlin" : {
        "_info" : {
            "comment" : "",
            "filling-rpc-server" : "evm version 1.11.0-unstable-262bd38f-20221210",
            "filling-tool-version" : "retesteth-0.2.3-postmerge+commit.17808a69.Linux.g++",
            "generatedTestHash" : "67dbc2eba5098d19571f112f61bd9a81b6933fd95763eaf0b0713a21e778aa1f",
            "lllcversion" : "Error getting LLLC Version",
            "solidity" : "Version: 0.8.17-develop.2022.9.30+commit.8df45f5f.Linux.clang",
            "source" : "tmp/main/swap_mathFiller.yml",
            "sourceHash" : "1efc36f001879c3d76a717c3de03b38a6b7ef64e9e075bd1d23e3a2388cd205e"
        },
        "blocks" : [
            {
                "blockHeader" : {
                    "bloom" : "0x00000000000000000000000000000000000000000000000000000000000000000000000000000000000000000000000000000000000000000000000000000000000000000000000000000000000000000000000000000000000000000000000000000000000000000000000000000000000000000000000000000000000000000000000000000000000000000000000000000000000000000000000000000000000000000000000000000000000000000000000000000000000000000000000000000000000000000000000000000000000000000000000000000000000000000000000000000000000000000000000000000000000000000000000000000000",
                    "coinbase" : "0xa94f5374fce5edbc8e2a8697c15331677e6ebf0b",
                    "difficulty" : "0x020000",
                    "extraData" : "0x00",
                    "gasLimit" : "0x3b9aca00",
                    "gasUsed" : "0x5fd8",
                    "hash" : "0x7e3726bb16bd1aaead5ae57e2e9fab911fd9c0d6ea9e46f0f699174d0c068bc9",
                    "mixHash" : "0x0000000000000000000000000000000000000000000000000000000000000000",
                    "nonce" : "0x0000000000000000",
                    "number" : "0x01",
                    "parentHash" : "0xeb48796a4e1556bebc91e4fa5ac6cf2b0eecdc01c96b4657552879e7b5a4bf63",
                    "receiptTrie" : "0xd673860c9b87b491399a7ba7ae4405760cf49190db56d5062593e728156e3d65",
                    "stateRoot" : "0x917acfd8586b87330476da192e928a9c0cb04127e268656ad80410d2936e9707",
                    "timestamp" : "0x61a8d289",
                    "transactionsTrie" : "0xdea24095be8b971f1413252a8b90678e387e847ebde93e7051791c2cdd45deb5",
                    "uncleHash" : "0x1dcc4de8dec75d7aab85b567b6ccd41ad312451b948a7413f0a142fd40d49347"
                },
                "rlp" : "0xf9030af901faa0eb48796a4e1556bebc91e4fa5ac6cf2b0eecdc01c96b4657552879e7b5a4bf63a01dcc4de8dec75d7aab85b567b6ccd41ad312451b948a7413f0a142fd40d4934794a94f5374fce5edbc8e2a8697c15331677e6ebf0ba0917acfd8586b87330476da192e928a9c0cb04127e268656ad80410d2936e9707a0dea24095be8b971f1413252a8b90678e387e847ebde93e7051791c2cdd45deb5a0d673860c9b87b491399a7ba7ae4405760cf49190db56d5062593e728156e3d65b90100000000000000000000000000000000000000000000000000000000000000000000000000000000000000000000000000000000000000000000000000000000000000000000000000000000000000000000000000000000000000000000000000000000000000000000000000000000000000000000000000000000000000000000000000000000000000000000000000000000000000000000000000000000000000000000000000000000000000000000000000000000000000000000000000000000000000000000000000000000000000000000000000000000000000000000000000000000000000000000000000000000000000000000000000000000008302000001843b9aca00825fd88461a8d28900a00000000000000000000000000000000000000000000000000000000000000000880000000000000000f90109f901068001843b9aca0094be7c43a58000000000000000000000000000000180b8a4100d3f74000000000000000000000000000000000000010000000000000000000000000000000000000000000000000000000000000001199999999999999999999999990000000000000000000000000000000000000000000000000000000000000400fffffffffffffffffffffffffffffffffffffffffffffffffffffffffffffffc0000000000000000000000000000000000000000000000000000000000000bb81ba035c1ac5b53e996197381d96905ecd184df2013421599ce1e9acec21842883c4aa056fd94a57e323ba704da4fd07e9a4f5d84128124e93b31fdf1727253359c4bd5c0",
                "transactions" : [
                    {
                        "data" : "0x100d3f74000000000000000000000000000000000000010000000000000000000000000000000000000000000000000000000000000001199999999999999999999999990000000000000000000000000000000000000000000000000000000000000400fffffffffffffffffffffffffffffffffffffffffffffffffffffffffffffffc0000000000000000000000000000000000000000000000000000000000000bb8",
                        "gasLimit" : "0x3b9aca00",
                        "gasPrice" : "0x01",
                        "nonce" : "0x00",
                        "r" : "0x35c1ac5b53e996197381d96905ecd184df2013421599ce1e9acec21842883c4a",
                        "s" : "0x56fd94a57e323ba704da4fd07e9a4f5d84128124e93b31fdf1727253359c4bd5",
                        "sender" : "0xa94f5374fce5edbc8e2a8697c15331677e6ebf0b",
                        "to" : "0xbe7c43a580000000000000000000000000000001",
                        "v" : "0x1b",
                        "value" : "0x00"
                    }
                ],
                "uncleHeaders" : [
                ]
            }
        ],
        "genesisBlockHeader" : {
            "bloom" : "0x00000000000000000000000000000000000000000000000000000000000000000000000000000000000000000000000000000000000000000000000000000000000000000000000000000000000000000000000000000000000000000000000000000000000000000000000000000000000000000000000000000000000000000000000000000000000000000000000000000000000000000000000000000000000000000000000000000000000000000000000000000000000000000000000000000000000000000000000000000000000000000000000000000000000000000000000000000000000000000000000000000000000000000000000000000000",
            "coinbase" : "0xa94f5374fce5edbc8e2a8697c15331677e6ebf0b",
            "difficulty" : "0x01",
            "extraData" : "0x00",
            "gasLimit" : "0x3b9aca00",
            "gasUsed" : "0x00",
            "hash" : "0xeb48796a4e1556bebc91e4fa5ac6cf2b0eecdc01c96b4657552879e7b5a4bf63",
            "mixHash" : "0x0000000000000000000000000000000000000000000000000000000000000000",
            "nonce" : "0x0000000000000000",
            "number" : "0x00",
            "parentHash" : "0x0000000000000000000000000000000000000000000000000000000000000000",
            "receiptTrie" : "0x56e81f171bcc55a6ff8345e692c0f86e5b48e01b996cadc001622fb5e363b421",
            "stateRoot" : "0x0cdc4a0c5f680d6890b1432b51d7241694516594978918c1aa83a21aa10376dd",
            "timestamp" : "0x00",
            "transactionsTrie" : "0x56e81f171bcc55a6ff8345e692c0f86e5b48e01b996cadc001622fb5e363b421",
            "uncleHash" : "0x1dcc4de8dec75d7aab85b567b6ccd41ad312451b948a7413f0a142fd40d49347"
        },
        "genesisRLP" : "0xf901f6f901f1a00000000000000000000000000000000000000000000000000000000000000000a01dcc4de8dec75d7aab85b567b6ccd41ad312451b948a7413f0a142fd40d4934794a94f5374fce5edbc8e2a8697c15331677e6ebf0ba00cdc4a0c5f680d6890b1432b51d7241694516594978918c1aa83a21aa10376dda056e81f171bcc55a6ff8345e692c0f86e5b48e01b996cadc001622fb5e363b421a056e81f171bcc55a6ff8345e692c0f86e5b48e01b996cadc001622fb5e363b421b90100000000000000000000000000000000000000000000000000000000000000000000000000000000000000000000000000000000000000000000000000000000000000000000000000000000000000000000000000000000000000000000000000000000000000000000000000000000000000000000000000000000000000000000000000000000000000000000000000000000000000000000000000000000000000000000000000000000000000000000000000000000000000000000000000000000000000000000000000000000000000000000000000000000000000000000000000000000000000000000000000000000000000000000000000000000000180843b9aca00808000a00000000000000000000000000000000000000000000000000000000000000000880000000000000000c0c0",
        "lastblockhash" : "0x7e3726bb16bd1aaead5ae57e2e9fab911fd9c0d6ea9e46f0f699174d0c068bc9",
        "network" : "Berlin",
        "postState" : {
            "0xa94f5374fce5edbc8e2a8697c15331677e6ebf0b" : {
                "balance" : "0x1bc16d678a62ca00",
                "code" : "0x",
                "nonce" : "0x01",
                "storage" : {
                }
            },
            "0xbe7c43a580000000000000000000000000000001" : {
                "balance" : "0x00",
                "code" : "0x608060405234801561001057600080fd5b506004361061002b5760003560e01c8063100d3f7414610030575b600080fd5b610081600480360360a081101561004657600080fd5b5080356001600160a01b039081169160208101359091169060408101356001600160801b0316906060810135906080013562ffffff166100b1565b604080516001600160a01b0390951685526020850193909352838301919091526060830152519081900360800190f35b60008080806001600160a01b03808916908a1610158187128015906101365760006100ea8989620f42400362ffffff16620f42406102a3565b905082610103576100fe8c8c8c6001610353565b610110565b6101108b8d8c60016103ce565b9550858110610121578a9650610130565b61012d8c8b8386610479565b96505b50610180565b8161014d576101488b8b8b60006103ce565b61015a565b61015a8a8c8b6000610353565b935083886000031061016e57899550610180565b61017d8b8a8a600003856104c5565b95505b6001600160a01b038a81169087161482156101e35780801561019f5750815b6101b5576101b0878d8c60016103ce565b6101b7565b855b95508080156101c4575081155b6101da576101d5878d8c6000610353565b6101dc565b845b945061022d565b8080156101ed5750815b610203576101fe8c888c6001610353565b610205565b855b9550808015610212575081155b610228576102238c888c60006103ce565b61022a565b845b94505b8115801561023d57508860000385115b15610249578860000394505b81801561026857508a6001600160a01b0316876001600160a01b031614155b15610277578589039350610294565b610291868962ffffff168a620f42400362ffffff16610511565b93505b50505095509550955095915050565b60008080600019858709868602925082811090839003039050806102d957600084116102ce57600080fd5b50829004905061034c565b8084116102e557600080fd5b6000848688096000868103871696879004966002600389028118808a02820302808a02820302808a02820302808a02820302808a02820302808a02909103029181900381900460010186841190950394909402919094039290920491909117919091029150505b9392505050565b6000836001600160a01b0316856001600160a01b03161115610373579293925b816103a05761039b836001600160801b03168686036001600160a01b0316600160601b6102a3565b6103c3565b6103c3836001600160801b03168686036001600160a01b0316600160601b610511565b90505b949350505050565b6000836001600160a01b0316856001600160a01b031611156103ee579293925b600160601b600160e01b03606084901b166001600160a01b03868603811690871661041857600080fd5b8361044857866001600160a01b031661043b8383896001600160a01b03166102a3565b8161044257fe5b0461046e565b61046e61045f8383896001600160a01b0316610511565b886001600160a01b031661054b565b979650505050505050565b600080856001600160a01b03161161049057600080fd5b6000846001600160801b0316116104a657600080fd5b816104b85761039b8585856001610556565b6103c38585856001610637565b600080856001600160a01b0316116104dc57600080fd5b6000846001600160801b0316116104f257600080fd5b816105045761039b8585856000610637565b6103c38585856000610556565b600061051e8484846102a3565b90506000828061052a57fe5b848609111561034c57600019811061054157600080fd5b6001019392505050565b808204910615150190565b600081156105c95760006001600160a01b0384111561058c5761058784600160601b876001600160801b03166102a3565b6105a4565b6001600160801b038516606085901b816105a257fe5b045b90506105c16105bc6001600160a01b0388168361071a565b610730565b9150506103c6565b60006001600160a01b038411156105f7576105f284600160601b876001600160801b0316610511565b61060e565b61060e606085901b6001600160801b03871661054b565b905080866001600160a01b03161161062557600080fd5b6001600160a01b0386160390506103c6565b6000826106455750836103c6565b600160601b600160e01b03606085901b1682156106d3576001600160a01b0386168481029085828161067357fe5b0414156106a4578181018281106106a25761069883896001600160a01b031683610511565b93505050506103c6565b505b6106ca826106c5878a6001600160a01b031686816106be57fe5b049061071a565b61054b565b925050506103c6565b6001600160a01b038616848102908582816106ea57fe5b041480156106f757508082115b61070057600080fd5b8082036106986105bc846001600160a01b038b1684610511565b8082018281101561072a57600080fd5b92915050565b806001600160a01b038116811461074657600080fd5b91905056fea2646970667358221220bb65d86c3677a48866008eb6782a6fadbf9ba12b33a2e9f96d1e4f488809c1a364736f6c63430007060033",
                "nonce" : "0x00",
                "storage" : {
                }
            }
        },
        "pre" : {
            "0xa94f5374fce5edbc8e2a8697c15331677e6ebf0b" : {
                "balance" : "0x3b9aca00",
                "code" : "0x",
                "nonce" : "0x00",
                "storage" : {
                }
            },
            "0xbe7c43a580000000000000000000000000000001" : {
                "balance" : "0x00",
                "code" : "0x608060405234801561001057600080fd5b506004361061002b5760003560e01c8063100d3f7414610030575b600080fd5b610081600480360360a081101561004657600080fd5b5080356001600160a01b039081169160208101359091169060408101356001600160801b0316906060810135906080013562ffffff166100b1565b604080516001600160a01b0390951685526020850193909352838301919091526060830152519081900360800190f35b60008080806001600160a01b03808916908a1610158187128015906101365760006100ea8989620f42400362ffffff16620f42406102a3565b905082610103576100fe8c8c8c6001610353565b610110565b6101108b8d8c60016103ce565b9550858110610121578a9650610130565b61012d8c8b8386610479565b96505b50610180565b8161014d576101488b8b8b60006103ce565b61015a565b61015a8a8c8b6000610353565b935083886000031061016e57899550610180565b61017d8b8a8a600003856104c5565b95505b6001600160a01b038a81169087161482156101e35780801561019f5750815b6101b5576101b0878d8c60016103ce565b6101b7565b855b95508080156101c4575081155b6101da576101d5878d8c6000610353565b6101dc565b845b945061022d565b8080156101ed5750815b610203576101fe8c888c6001610353565b610205565b855b9550808015610212575081155b610228576102238c888c60006103ce565b61022a565b845b94505b8115801561023d57508860000385115b15610249578860000394505b81801561026857508a6001600160a01b0316876001600160a01b031614155b15610277578589039350610294565b610291868962ffffff168a620f42400362ffffff16610511565b93505b50505095509550955095915050565b60008080600019858709868602925082811090839003039050806102d957600084116102ce57600080fd5b50829004905061034c565b8084116102e557600080fd5b6000848688096000868103871696879004966002600389028118808a02820302808a02820302808a02820302808a02820302808a02820302808a02909103029181900381900460010186841190950394909402919094039290920491909117919091029150505b9392505050565b6000836001600160a01b0316856001600160a01b03161115610373579293925b816103a05761039b836001600160801b03168686036001600160a01b0316600160601b6102a3565b6103c3565b6103c3836001600160801b03168686036001600160a01b0316600160601b610511565b90505b949350505050565b6000836001600160a01b0316856001600160a01b031611156103ee579293925b600160601b600160e01b03606084901b166001600160a01b03868603811690871661041857600080fd5b8361044857866001600160a01b031661043b8383896001600160a01b03166102a3565b8161044257fe5b0461046e565b61046e61045f8383896001600160a01b0316610511565b886001600160a01b031661054b565b979650505050505050565b600080856001600160a01b03161161049057600080fd5b6000846001600160801b0316116104a657600080fd5b816104b85761039b8585856001610556565b6103c38585856001610637565b600080856001600160a01b0316116104dc57600080fd5b6000846001600160801b0316116104f257600080fd5b816105045761039b8585856000610637565b6103c38585856000610556565b600061051e8484846102a3565b90506000828061052a57fe5b848609111561034c57600019811061054157600080fd5b6001019392505050565b808204910615150190565b600081156105c95760006001600160a01b0384111561058c5761058784600160601b876001600160801b03166102a3565b6105a4565b6001600160801b038516606085901b816105a257fe5b045b90506105c16105bc6001600160a01b0388168361071a565b610730565b9150506103c6565b60006001600160a01b038411156105f7576105f284600160601b876001600160801b0316610511565b61060e565b61060e606085901b6001600160801b03871661054b565b905080866001600160a01b03161161062557600080fd5b6001600160a01b0386160390506103c6565b6000826106455750836103c6565b600160601b600160e01b03606085901b1682156106d3576001600160a01b0386168481029085828161067357fe5b0414156106a4578181018281106106a25761069883896001600160a01b031683610511565b93505050506103c6565b505b6106ca826106c5878a6001600160a01b031686816106be57fe5b049061071a565b61054b565b925050506103c6565b6001600160a01b038616848102908582816106ea57fe5b041480156106f757508082115b61070057600080fd5b8082036106986105bc846001600160a01b038b1684610511565b8082018281101561072a57600080fd5b92915050565b806001600160a01b038116811461074657600080fd5b91905056fea2646970667358221220bb65d86c3677a48866008eb6782a6fadbf9ba12b33a2e9f96d1e4f488809c1a364736f6c63430007060033",
                "nonce" : "0x00",
                "storage" : {
                }
            }
        },
        "sealEngine" : "NoProof"
    }
}