{
    "memory_grow_mstore" : {
        "_info" : {
            "comment" : "",
            "filling-rpc-server" : "evm version 1.10.25-stable-69568c55",
            "filling-tool-version" : "retesteth-0.2.2-testinfo+commit.766b4629.Linux.g++",
            "generatedTestHash" : "3eee38bd60d67ea688a50d30043eb8bd3bcf6ab59aa0bdc1aa7c67167ed440a1",
            "labels" : {
                "0" : "nogrow",
                "1" : "by1",
                "2" : "by16",
                "3" : "by32"
            },
            "lllcversion" : "Error getting LLLC Version",
            "solidity" : "Error getting solc Version",
            "source" : "tmp/micro/memory_grow_mstoreFiller.yml",
            "sourceHash" : "682b898d578db8d23f2ae8e756320d2afa73b6d219522a9b9fad49747e5adfc3"
        },
        "env" : {
            "currentBaseFee" : "0x01",
            "currentCoinbase" : "0xa94f5374fce5edbc8e2a8697c15331677e6ebf0b",
            "currentDifficulty" : "0x01",
            "currentGasLimit" : "0x3b9aca00",
            "currentNumber" : "0x01",
            "currentRandom" : "0x0000000000000000000000000000000000000000000000000000000000000001",
            "currentTimestamp" : "0x61a8d289",
            "previousHash" : "0x5e20a0453cecd065ea59c37ac63e079ee08998b6045136a8ce6635c7912ec0b6"
        },
        "post" : {
            "London" : [
                {
                    "hash" : "0xd62ece9a2b4f6bfb79bd98bc8e2a4bbc38c1e2b8e751d36f227517450b3ee29d",
                    "indexes" : {
                        "data" : 0,
                        "gas" : 0,
                        "value" : 0
                    },
                    "logs" : "0x1dcc4de8dec75d7aab85b567b6ccd41ad312451b948a7413f0a142fd40d49347",
                    "txbytes" : "0xf8818001843b9aca0094be7c43a58000000000000000000000000000000180a000000000000000000000000000000000000000000000000000000000000000001ca07caad6e668beb2818d52ed91be983bd1d5167348a8a81192a93447e66af8fd79a06007feb5d49286ac556d21b30a94743d539c2e4f64b1b380241ac31b014b00f3"
                },
                {
                    "hash" : "0x6746a8bc9965f552522cbd4420812359f524601fe822bbab68bfa5c9a7ce47bb",
                    "indexes" : {
                        "data" : 1,
                        "gas" : 0,
                        "value" : 0
                    },
                    "logs" : "0x1dcc4de8dec75d7aab85b567b6ccd41ad312451b948a7413f0a142fd40d49347",
                    "txbytes" : "0xf8818001843b9aca0094be7c43a58000000000000000000000000000000180a000000000000000000000000000000000000000000000000000000000000000011ba08484b10e7e6e052f30acd1ce2978087217d1e574786634f33b1099c8f3ff06cfa03d2d97a4e396908792d69ae64cac6cf2cb6430fa22fc7eafa2292fcf60d89b20"
                },
                {
                    "hash" : "0x6e6290b5bed86313c848b20b3defdf9db5f07d965557d9808f988be4e3c50694",
                    "indexes" : {
                        "data" : 2,
                        "gas" : 0,
                        "value" : 0
                    },
                    "logs" : "0x1dcc4de8dec75d7aab85b567b6ccd41ad312451b948a7413f0a142fd40d49347",
                    "txbytes" : "0xf8818001843b9aca0094be7c43a58000000000000000000000000000000180a000000000000000000000000000000000000000000000000000000000000000101ca0b484fa1d36cf2d525dae1325b96120f689b2871fbbb9609f318aeff41ca1afdba061388425befb1812dd270813b02fb5b47459d819e7d448dc6e8491fa9a321cf3"
                },
                {
                    "hash" : "0x018c185669847e31314e3f536d6ec1cda4dad64dfd338c5bfd3bc22848683da7",
                    "indexes" : {
                        "data" : 3,
                        "gas" : 0,
                        "value" : 0
                    },
                    "logs" : "0x1dcc4de8dec75d7aab85b567b6ccd41ad312451b948a7413f0a142fd40d49347",
                    "txbytes" : "0xf8818001843b9aca0094be7c43a58000000000000000000000000000000180a000000000000000000000000000000000000000000000000000000000000000201ba00dcfc14e014aaba65e60eb7c6916c30ca8dda13868a5cdc4e056d6b98d920285a025f4e77439cb45cecc8d6f987e14b1fb4908c223174c7bf208f70e5b12d13fdf"
                }
            ]
        },
        "pre" : {
            "0xa94f5374fce5edbc8e2a8697c15331677e6ebf0b" : {
                "balance" : "0x3b9aca00",
                "code" : "0x",
                "nonce" : "0x00",
                "storage" : {
                }
            },
            "0xbe7c43a580000000000000000000000000000001" : {
                "balance" : "0x00",
                "code" : "0x60003560008080528101808052810180805281018080528101808052810180805281018080528101808052810180805281018080528101808052810180805281018080528101808052810180805281018080528101808052810180805281018080528101808052810180805281018080528101808052810180805281018080528101808052810180805281018080528101808052810180805281018080528101808052810180805281018080528101808052810180805281018080528101808052810180805281018080528101808052810180805281018080528101808052810180805281018080528101808052810180805281018080528101808052810180805281018080528101808052810180805281018080528101808052810180805281018080528101808052810180805281018080528101808052810180805281018080528101808052810180805281018080528101808052810180805281018080528101808052810180805281018080528101808052810180805281018080528101808052810180805281018080528101808052810180805281018080528101808052810180805281018080528101808052810180805281018080528101808052810180805281018080528101808052810180805281018080528101808052810180805281018080528101808052810180805281018080528101808052810180805281018080528101808052810180805281018080528101808052810180805281018080528101808052810180805281018080528101808052810180805281018080528101808052810180805281018080528101808052810180805281018080528101808052810180805281018080528101808052810180805281018080528101808052810180805281018080528101808052810180805281018080528101808052810180805281018080528101808052810180805281018080528101808052810180805281018080528101808052810180805281018080528101808052810180805281018080528101808052810180805281018080528101808052810180805281018080528101808052810180805281018080528101808052810180805281018080528101808052810180805281018080528101808052810180805281018080528101808052810180805281018080528101808052810180805281018080528101808052810180805281018080528101808052810180805281018080528101808052810180805281018080528101808052810180805281018080528101808052810180805281018080528101808052810180805281018080528101808052810180805281018080528101808052810180805281018080528101808052810180805281018080528101808052810180805281018080528101808052810180805281018080528101808052810180805281018080528101808052810180805281018080528101808052810180805281018080528101808052810180805281018080528101808052810180805281018080528101808052810180805281018080528101808052810180805281018080528101808052810180805281018080528101808052810180805281018080528101808052810180805281018080528101808052810180805281018080528101808052810180805281018080528101808052810180805281018080528101808052810180805281018080528101808052810180805281018080528101808052810180805281018080528101808052810180805281018080528101808052810180805281018080528101808052810180805281018080528101808052810180805281018080528101808052810180805281018080528101808052810180805281018080528101808052810180805281018080528101808052810180805281018080528101808052810180805281018080528101808052810180805281018080528101808052810180805281018080528101808052810180805281018080528101808052810180805281018080528101808052810180805281018080528101808052810180805281018080528101808052810180805281018080528101808052810180805281018080528101808052810180805281018080528101808052810180805281018080528101808052810180805281018080528101808052810180805281018080528101808052810180805281018080528101808052810180805281018080528101808052810180805281018080528101808052810180805281018080528101808052810180805281018080528101808052810180805281018080528101808052810180805281018080528101808052810180805281018080528101808052810180805281018080528101808052810180805281018080528101808052810180805281018080528101808052810180805281018080528101808052810180805281018080528101808052810180805281018080528101808052810180805281018080528101808052810180805281018080528101808052810180805281018080528101808052810180805281018080528101808052810180805281018080528101808052810180805281018080528101808052810180805281018080528101808052810180805281018080528101808052810180805281018080528101808052810180805281018080528101808052810180805281018080528101808052810180805281018080528101808052810180805281018080528101808052810180805281018080528101808052810180805281018080528101808052810180805281018080528101808052810180805281018080528101808052810180805281018080528101808052810180805281018080528101808052810180805281018080528101808052810180805281018080528101808052810180805281018080528101808052810180805281018080528101808052810180805281018080528101808052810180805281018080528101808052810180805281018080528101808052810180805281018080528101808052810180805281018080528101808052810180805281018080528101808052810180805281018080528101808052810180805281018080528101808052810180805281018080528101808052810180805281018080528101808052810180805281018080528101808052810180805281018080528101808052810180805281018080528101808052810180805281018080528101808052810180805281018080528101808052810180805281018080528101808052810180805281018080528101808052810180805281018080528101808052810180805281018080528101808052810180805281018080528101808052810180805281018080528101808052810180805281018080528101808052810180805281018080528101808052810180805281018080528101808052810180805281018080528101808052810180805281018080528101808052810180805281018080528101808052810180805281018080528101808052810180805281018080528101808052810180805281018080528101808052810180805281018080528101808052810180805281018080528101808052810180805281018080528101808052810180805281018080528101808052810180805281018080528101808052810180805281018080528101808052810180805281018080528101808052810180805281018080528101808052810180805281018080528101808052810180805281018080528101808052810180805281018080528101808052810180805281018080528101808052810180805281018080528101808052810180805281018080528101808052810180805281018080528101808052810180805281018080528101808052810180805281018080528101808052810180805281018080528101808052810180805281018080528101808052810180805281018080528101808052810180805281018080528101808052810180805281018080528101808052810180805281018080528101808052810180805281018080528101808052810180805281018080528101808052810180805281018080528101808052810180805281018080528101808052810180805281018080528101808052810180805281018080528101808052810180805281018080528101808052810180805281018080528101808052810180805281018080528101808052810180805281018080528101808052810180805281018080528101808052810180805281018080528101808052810180805281018080528101808052810180805281018080528101808052810180805281018080528101808052810180805281018080528101808052810180805281018080528101808052810180805281018080528101808052810180805281018080528101808052810180805281018080528101808052810180805281018080528101808052810180805281018080528101808052810180805281018080528101808052810180805281018080528101808052810180805281018080528101808052810180805281018080528101808052810180805281018080528101808052810180805281018080528101808052810180805281018080528101808052810180805281018080528101808052810180805281018080528101808052810180805281018080528101808052810180805281018080528101808052810180805281018080528101808052810180805281018080528101808052810180805281018080528101808052810180805281018080528101808052810180805281018080528101808052810180805281018080528101808052810180805281018080528101808052810180805281018080528101808052810180805281018080528101808052810180805281018080528101808052810180805281018080528101808052810180805281018080528101808052810180805281018080528101808052810180805281018080528101808052810180805281018080528101808052810180805281018080528101808052810180805281018080528101808052810180805281018080528101808052810180805281018080528101808052810180805281018080528101808052810180805281018080528101808052810180805281018080528101808052810180805281018080528101808052810180805281018080528101808052810180805281018080528101808052810180805281018080528101808052810180805281018080528101808052810180805281018080528101808052810180805281018080528101808052810180805281018080528101808052810180805281018080528101808052810180805281018080528101808052810180805281018080528101808052810180805281018080528101808052810180805281018080528101808052810180805281018080528101808052810180805281018080528101808052810180805281018080528101808052810180805281018080528101808052810180805281018080528101808052810180805281018080528101808052810180805281018080528101808052810180805281018080528101808052810180805281018080528101808052810180805281018080528101808052810180805281018080528101808052810180805281018080528101808052810180805281018080528101808052810180805281018080528101808052810180805281018080528101808052810180805281018080528101808052810180805281018080528101808052810180805281018080528101808052810180805281018080528101808052810180805281018080528101808052810180805281018080528101808052810180805281018080528101808052810180805281018080528101808052810180805281018080528101808052810180805281018080528101808052810180805281018080528101808052810180805281018080528101808052810180805281018080528101808052810180805281018080528101808052810180805281018080528101808052810180805281018080528101808052810180805281018080528101808052810180805281018080528101808052810180805281018080528101808052810180805281018080528101808052810180805281018080528101808052810180805281018080528101808052810180805281018080528101808052810180805281018080528101808052810180805281018080528101808052810180805281018080528101808052810180805281018080528101808052810180805281018080528101808052810180805281018080528101808052810180805281018080528101808052810180805281018080528101808052810180805281018080528101808052810180805281018080528101808052810180805281018080528101808052810180805281018080528101808052810180805281018080528101808052810180805281018080528101808052810180805281018080528101808052810180805281018080528101808052810180805281018080528101808052810180805281018080528101808052810180805281018080528101808052810180805281018080528101808052810180805281018080528101808052810180805281018080528101808052810180805281018080528101808052810180805281018080528101808052810180805281018080528101808052810180805281018080528101808052810180805281018080528101808052810180805281018080528101808052810180805281018080528101808052810180805281018080528101808052810180805281018080528101808052810180805281018080528101808052810180805281018080528101808052810180805281018080528101808052810180805281018080528101808052810180805281018080528101808052810180805281018080528101808052810180805281018080528101808052810180805281018080528101808052810180805281018080528101808052810180805281018080528101808052810180805281018080528101808052810180805281018080528101808052810180805281018080528101808052810180805281018080528101808052810180805281018080528101808052810180805281018080528101808052810180805281018080528101808052810180805281018080528101808052810180805281018080528101808052810180805281018080528101808052810180805281018080528101808052810180805281018080528101808052810180805281018080528101808052810180805281018080528101808052810180805281018080528101808052810180805281018080528101808052810180805281018080528101808052810180805281018080528101808052810180805281018080528101808052810180805281018080528101808052810180805281018080528101808052810180805281018080528101808052810180805281018080528101808052810180805281018080528101808052810180805281018080528101808052810180805281018080528101808052810180805281018080528101808052810180805281018080528101808052810180805281018080528101808052810180805281018080528101808052810180805281018080528101808052810180805281018080528101808052810180805281018080528101808052810180805281018080528101808052810180805281018080528101808052810180805281018080528101808052810180805281018080528101808052810180805281018080528101808052810180805281018080528101808052810180805281018080528101808052810180805281018080528101808052810180805281018080528101808052810180805281018080528101808052810180805281018080528101808052810180805281018080528101808052810180805281018080528101808052810180805281018080528101808052810180805281018080528101808052810180805281018080528101808052810180805281018080528101808052810180805281018080528101808052810180805281018080528101808052810180805281018080528101808052810180805281018080528101808052810180805281018080528101808052810180805281018080528101808052810180805281018080528101808052810180805281018080528101808052810180805281018080528101808052810180805281018080528101808052810180805281018080528101808052810180805281018080528101808052810180805281018080528101808052810180805281018080528101808052810180805281018080528101808052810180805281018080528101808052810180805281018080528101808052810180805281018080528101808052810180805281018080528101808052810180805281018080528101808052810180805281018080528101808052810180805281018080528101808052810180805281018080528101808052810180805281018080528101808052810180805281018080528101808052810180805281018080528101808052810180805281018080528101808052810180805281018080528101808052810180805281018080528101808052810180805281018080528101808052810180805281018080528101808052810180805281018080528101808052810180805281018080528101808052810180805281018080528101808052810180805281018080528101808052810180805281018080528101808052810180805281018080528101808052810180805281018080528101808052810180805281018080528101808052810180805281018080528101808052810180805281018080528101808052810180805281018080528101808052810180805281018080528101808052810180805281018080528101808052810180805281018080528101808052810180805281018080528101808052810180805281018080528101808052810180805281018080528101808052810180805281018080528101808052810180805281018080528101808052810180805281018080528101808052810180805281018080528101808052810180805281018080528101808052810180805281018080528101808052810180805281018080528101808052810180805281018080528101808052810180805281018080528101808052810180805281018080528101808052810180805281018080528101808052810180805281018080528101808052810180805281018080528101808052810180805281018080528101808052810180805281018080528101808052810180805281018080528101808052810180805281018080528101808052810180805281018080528101808052810180805281018080528101808052810180805281018080528101808052810180805281018080528101808052810180805281018080528101808052810180805281018080528101808052810180805281018080528101808052810180805281018080528101808052810180805281018080528101808052810180805281018080528101808052810180805281018080528101808052810180805281018080528101808052810180805281018080528101808052810180805281018080528101808052810180805281018080528101808052810180805281018080528101808052810180805281018080528101808052810180805281018080528101808052810180805281018080528101808052810180805281018080528101808052810180805281018080528101808052810180805281018080528101808052810180805281018080528101808052810180805281018080528101808052810180805281018080528101808052810180805281018080528101808052810180805281018080528101808052810180805281018080528101808052810180805281018080528101808052810180805281018080528101808052810180805281018080528101808052810180805281018080528101808052810180805281018080528101808052810180805281018080528101808052810180805281018080528101808052810180805281018080528101808052810180805281018080528101808052810180805281018080528101808052810180805281018080528101808052810180805281018080528101808052810180805281018080528101808052810180805281018080528101808052810180805281018080528101808052810180805281018080528101808052810180805281018080528101808052810180805281018080528101808052810180805281018080528101808052810180805281018080528101808052810180805281018080528101808052810180805281018080528101808052810180805281018080528101808052810180805281018080528101808052810180805281018080528101808052810180805281018080528101808052810180805281018080528101808052810180805281018080528101808052810180805281018080528101808052810180805281018080528101808052810180805281018080528101808052810180805281018080528101808052810180805281018080528101808052810180805281018080528101808052810180805281018080528101808052810180805281018080528101808052810180805281018080528101808052810180805281018080528101808052810180805281018080528101808052810180805281018080528101808052810180805281018080528101808052810180805281018080528101808052810180805281018080528101808052810180805281018080528101808052810180805281018080528101808052810180805281018080528101808052810180805281018080528101808052810180805281018080528101808052810180805281018080528101808052810180805281018080528101808052810180805281018080528101808052810180805281018080528101808052810180805281018080528101808052810180805281018080528101808052810180805281018080528101808052810180805281018080528101808052810180805281018080528101808052810180805281018080528101808052810180805281018080528101808052810180805281018080528101808052810180805281018080528101808052810180805281018080528101808052810180805281018080528101808052810180805281018080528101808052810180805281018080528101808052810180805281018080528101808052810180805281018080528101808052810180805281018080528101808052810180805281018080528101808052810180805281018080528101808052810180805281018080528101808052810180805281018080528101808052810180805281018080528101808052810180805281018080528101808052810180805281018080528101808052810180805281018080528101808052810180805281018080528101808052810180805281018080528101808052810180805281018080528101808052810180805281018080528101808052810180805281018080528101808052810180805281018080528101808052810180805281018080528101808052810180805281018080528101808052810180805281018080528101808052810180805281018080528101808052810180805281018080528101808052810180805281018080528101808052810180805281018080528101808052810180805281018080528101808052810180805281018080528101808052810180805281018080528101808052810180805281018080528101808052810180805281018080528101808052810180805281018080528101808052810180805281018080528101808052810180805281018080528101808052810180805281018080528101808052810180805281018080528101808052810180805281018080528101808052810180805281018080528101808052810180805281018080528101808052810180805281018080528101808052810180805281018080528101808052810180805281018080528101808052810180805281018080528101808052810180805281018080528101808052810180805281018080528101808052810180805281018080528101808052810180805281018080528101808052810180805281018080528101808052810180805281018080528101808052810180805281018080528101808052810180805281018080528101808052810180805281018080528101808052810180805281018080528101808052810180805281018080528101808052810180805281018080528101808052810180805281018080528101808052810180805281018080528101808052810180805281018080528101808052810180805281018080528101808052810180805281018080528101808052810180805281018080528101808052810180805281018080528101808052810180805281018080528101808052810180805281018080528101808052810180805281018080528101808052810180805281018080528101808052810180805281018080528101808052810180805281018080528101808052810180805281018080528101808052810180805281018080528101808052810180805281018080528101808052810180805281018080528101808052810180805281018080528101808052810180805281018080528101808052810180805281018080528101808052810180805281018080528101808052810180805281018080528101808052810180805281018080528101808052810180805281018080528101808052810180805281018080528101808052810180805281018080528101808052810180805281018080528101808052810180805281018080528101808052810180805281018080528101808052810180805281018080528101808052810180805281018080528101808052810180805281018080528101808052810180805281018080528101808052810180805281018080528101808052810180805281018080528101808052810180805281018080528101808052810180805281018080528101808052810180805281018080528101808052810180805281018080528101808052810180805281018080528101808052810180805281018080528101808052810180805281018080528101808052810180805281018080528101808052810180805281018080528101808052810180805281018080528101808052810180805281018080528101808052810180805281018080528101808052810180805281018080528101808052810180805281018080528101808052810180805281018080528101808052810180805281018080528101808052810180805281018080528101808052810180805281018080528101808052810180805281018080528101808052810180805281018080528101808052810180805281018080528101808052810180805281018080528101808052810180805281018080528101808052810180805281018080528101808052810180805281018080528101808052810180805281018080528101808052810180805281018080528101808052810180805281018080528101808052810180805281018080528101808052810180805281018080528101808052810180805281018080528101808052810180805281018080528101808052810180805281018080528101808052810180805281018080528101808052810180805281018080528101808052810180805281018080528101808052810180805281018080528101808052810180805281018080528101808052810180805281018080528101808052810180805281018080528101808052810180805281018080528101808052810180805281018080528101808052810180805281018080528101808052810180805281018080528101808052810180805281018080528101808052810180805281018080528101808052810180805281018080528101808052810180805281018080528101808052810180805281018080528101808052810180805281018080528101808052810180805281018080528101808052810180805281018080528101808052810180805281018080528101808052810180805281018080528101808052810180805281018080528101808052810180805281018080528101808052810180805281018080528101808052810180805281018080528101808052810180805281018080528101808052810180805281018080528101808052810180805281018080528101808052810180805281018080528101808052810180805281018080528101808052810180805281018080528101808052810180805281018080528101808052810180805281018080528101808052810180805281018080528101808052810180805281018080528101808052810180805281018080528101808052810180805281018080528101808052810180805281018080528101808052810180805281018080528101808052810180805281018080528101808052810180805281018080528101808052810180805281018080528101808052810180805281018080528101808052810180805281018080528101808052810180805281018080528101808052810180805281018080528101808052810180805281018080528101808052810180805281018080528101808052810180805281018080528101808052810180805281018080528101808052810180805281018080528101808052810180805281018080528101808052810180805281018080528101808052810180805281018080528101808052810180805281018080528101808052810180805281018080528101808052810180805281018080528101808052810180805281018080528101808052810180805281018080528101808052810180805281018080528101808052810180805281018080528101808052810180805281018080528101808052810180805281018080528101808052810180805281018080528101808052810180805281018080528101808052810180805281018080528101808052810180805281018080528101808052810180805281018080528101808052810180805281018080528101808052810180805281018080528101808052810180805281018080528101808052810180805281018080528101808052810180805281018080528101808052810180805281018080528101808052810180805281018080528101808052810180805281018080528101808052810180805281018080528101808052810180805281018080528101808052810180805281018080528101808052810180805281018080528101808052810180805281018080528101808052810180805281018080528101808052810180805281018080528101808052810180805281018080528101808052810180805281018080528101808052810180805281018080528101808052810180805281018080528101808052810180805281018080528101808052810180805281018080528101808052810180805281018080528101808052810180805281018080528101808052810180805281018080528101808052810180805281018080528101808052810180805281018080528101808052810180805281018080528101808052810180805281018080528101808052810180805281018080528101808052810180805281018080528101808052810180805281018080528101808052810180805281018080528101808052810180805281018080528101808052810180805281018080528101808052810180805281018080528101808052810180805281018080528101808052810180805281018080528101808052810180805281018080528101808052810180805281018080528101808052810180805281018080528101808052810180805281018080528101808052810180805281018080528101808052810180805281018080528101808052810180805281018080528101808052810180805281018080528101808052810180805281018080528101808052810180805281018080528101808052810180805281018080528101808052810180805281018080528101808052810180805281018080528101808052810180805281018080528101808052810180805281018080528101808052810180805281018080528101808052810180805281018080528101808052810180805281018080528101808052810180805281018080528101808052810180805281018080528101808052810180805281018080528101808052810180805281018080528101808052810180805281018080528101808052810180805281018080528101808052810180805281018080528101808052810180805281018080528101808052810180805281018080528101808052810180805281018080528101808052810180805281018080528101808052810180805281018080528101808052810180805281018080528101808052810180805281018080528101808052810180805281018080528101808052810180805281018080528101808052810180805281018080528101808052810180805281018080528101808052810180805281018080528101808052810180805281018080528101808052810180805281018080528101808052810180805281018080528101808052810180805281018080528101808052810180805281018080528101808052810180805281018080528101808052810180805281018080528101808052810180805281018080528101808052810180805281018080528101808052810180805281018080528101808052810180805281018080528101808052810180805281018080528101808052810180805281018080528101808052810180805281018080528101808052810180805281018080528101808052810180805281018080528101808052810180805281018080528101808052810180805281018080528101808052810180805281018080528101808052810180805281018080528101808052810180805281018080528101808052810180805281018080528101808052810180805281018080528101808052810180805281018080528101808052810180805281018080528101808052810180805281018080528101808052810180805281018080528101808052810180805281018080528101808052810180805281018080528101808052810180805281018080528101808052810180805281018080528101808052810180805281018080528101808052810180805281018080528101808052810180805281018080528101808052810180805281018080528101808052810180805281018080528101808052810180805281018080528101808052810180805281018080528101808052810180805281018080528101808052810180805281018080528101808052810180805281018080528101808052810180805281018080528101808052810180805281018080528101808052810180805281018080528101808052810180805281018080528101808052810180805281018080528101808052810180805281018080528101808052810180805281018080528101808052810180805281018080528101808052810180805281018080528101808052810180805281018080528101808052810180805281018080528101808052810180805281018080528101808052810180805281018080528101808052810180805281018080528101808052810180805281018080528101808052810180805281018080528101808052810180805281018080528101808052810180805281018080528101808052810180805281018080528101808052810180805281018080528101808052810180805281018080528101808052810180805281018080528101808052810180805281018080528101808052810180805281018080528101808052810180805281018080528101808052810180805281018080528101808052810180805281018080528101808052810180805281018080528101808052810180805281018080528101808052810180805281018080528101808052810180805281018080528101808052810180805281018080528101808052810180805281018080528101808052810180805281018080528101808052810180805281018080528101808052810180805281018080528101808052810180805281018080528101808052810180805281018080528101808052810180805281018080528101808052810180805281018080528101808052810180805281018080528101808052810180805281018080528101808052810180805281018080528101808052810180805281018080528101808052810180805281018080528101808052810180805281018080528101808052810180805281018080528101808052810180805281018080528101808052810180805281018080528101808052810180805281018080528101808052810180805281018080528101808052810180805281018080528101808052810180805281018080528101808052810180805281018080528101808052810180805281018080528101808052810180805281018080528101808052810180805281018080528101808052810180805281018080528101808052810180805281018080528101808052810180805281018080528101808052810180805281018080528101808052810180805281018080528101808052810180805281018080528101808052810180805281018080528101808052810180805281018080528101808052810180805281018080528101808052810180805281018080528101808052810180805281018080528101808052810180805281018080528101808052810180805281018080528101808052810180805281018080528101808052810180805281018080528101808052810180805281018080528101808052810180805281018080528101808052810180805281018080528101808052810180805281018080528101808052810180805281018080528101808052810180805281018080528101808052810180805281018080528101808052810180805281018080528101808052810180805281018080528101808052810180805281018080528101808052810180805281018080528101808052810180805281018080528101808052810180805281018080528101808052810180805281018080528101808052810180805281018080528101808052810180805281018080528101808052810180805281018080528101808052810180805281018080528101808052810180805281018080528101808052810180805281018080528101808052810180805281018080528101808052810180805281018080528101808052810180805281018080528101808052810180805281018080528101808052810180805281018080528101808052810180805281018080528101808052810180805281018080528101808052810180805281018080528101808052810180805281018080528101808052810180805281018080528101808052810180805281018080528101808052810180805281018080528101808052810180805281018080528101808052810180805281018080528101808052810180805281018080528101808052810180805281018080528101808052810180805281018080528101808052810180805281018080528101808052810180805281018080528101808052810180805281018080528101808052810180805281018080528101808052810180805281018080528101808052810180805281018080528101808052810180805281018080528101808052810180805281018080528101808052810180805281018080528101808052810180805281018080528101808052810180805281018080528101808052810180805281018080528101808052810180805281018080528101808052810180805281018080528101808052810180805281018080528101808052810180805281018080528101808052810180805281018080528101808052810180805281018080528101808052810180805281018080528101808052810180805281018080528101808052810180805281018080528101808052810180805281018080528101808052810180805281018080528101808052810180805281018080528101808052810180805281018080528101808052810180805281018080528101808052810180805281018080528101808052810180805281018080528101808052810180805281018080528101808052810180805281018080528101808052810180805281018080528101808052810180805281018080528101808052810180805281018080528101808052810180805281018080528101808052810180805281018080528101808052810180805281018080528101808052810180805281018080528101808052810180805281018080528101808052810180805281018080528101808052810180805281018080528101808052810180805281018080528101808052810180805281018080528101808052810180805281018080528101808052810180805281018080528101808052810180805281018080528101808052810180805281018080528101808052810180805281018080528101808052810180805281018080528101808052810180805281018080528101808052810180805281018080528101808052810180805281018080528101808052810180805281018080528101808052810180805281018080528101808052810180805281018080528101808052810180805281018080528101808052810180805281018080528101808052810180805281018080528101808052810180805281018080528101808052810180805281018080528101808052810180805281018080528101808052810180805281018080528101808052810180805281018080528101808052810180805281018080528101808052810180805281018080528101808052810180805281018080528101808052810180805281018080528101808052810180805281018080528101808052810180805281018080528101808052810180805281018080528101808052810180805281018080528101808052810180805281018080528101808052810180805281018080528101808052810180805281018080528101808052810180805281018080528101808052810180805281018080528101808052810180805281018080528101808052810180805281018080528101808052810180805281018080528101808052810180805281018080528101808052810180805281018080528101808052810180805281018080528101808052810180805281018080528101808052810180805281018080528101808052810180805281018080528101808052810180805281018080528101808052810180805281018080528101808052810180805281018080528101808052810180805281018080528101808052810180805281018080528101808052810180805281018080528101808052810180805281018080528101808052810180805281018080528101808052810180805281018080528101808052810180805281018080528101808052810180805281018080528101808052810180805281018080528101808052810180805281018080528101808052810180805281018080528101808052810180805281018080528101808052810180805281018080528101808052810180805281018080528101808052810180805281018080528101808052810180805281018080528101808052810180805281018080528101808052810180805281018080528101808052810180805281018080528101808052810180805281018080528101808052810180805281018080528101808052810180805281018080528101808052810180805281018080528101808052810180805281018080528101808052810180805281018080528101808052810180805281018080528101808052810180805281018080528101808052810180805281018080528101808052810180805281018080528101808052810180805281018080528101808052810180805281018080528101808052810180805281018080528101808052810180805281018080528101808052810180805281018080528101808052810180805281018080528101808052810180805281018080528101808052810180805281018080528101808052810180805281018080528101808052810180805281018080528101808052810180805281018080528101808052810180805281018080528101808052810180805281018080528101808052810180805281018080528101808052810180805281018080528101808052810180805281018080528101808052810180805281018080528101808052810180805281018080528101808052810180805281018080528101808052810180805281018080528101808052810180805281018080528101808052810180805281018080528101808052810180805281018080528101808052810180805281018080528101808052810180805281018080528101808052810180805281018080528101808052810180805281018080528101808052810180805281018080528101808052810180805281018080528101808052810180805281018080528101808052810180805281018080528101808052810180805281018080528101808052810180805281018080528101808052810180805281018080528101808052810180805281018080528101808052810180805281018080528101808052810180805281018080528101808052810180805281018080528101808052810180805281018080528101808052810180805281018080528101808052810180805281018080528101808052810180805281018080528101808052810180805281018080528101808052810180805281018080528101808052810180805281018080528101808052810180805281018080528101808052810180805281018080528101808052810180805281018080528101808052810180805281018080528101808052810180805281018080528101808052810180805281018080528101808052810180805281018080528101808052810180805281018080528101808052810180805281018080528101808052810180805281018080528101808052810180805281018080528101808052810180805281018080528101808052810180805281018080528101808052810180805281018080528101808052810180805281018080528101808052810180805281018080528101808052810180805281018080528101808052810180805281018080528101808052810180805281018080528101808052810180805281018080528101808052810180805281018080528101808052810180805281018080528101808052810180805281018080528101808052810180805281018080528101808052810180805281018080528101808052810180805281018080528101808052810180805281018080528101808052810180805281018080528101808052810180805281018080528101808052810180805281018080528101808052810180805281018080528101808052810180805281018080528101808052810180805281018080528101808052810180805281018080528101808052810180805281018080528101808052810180805281018080528101808052810180805281018080528101808052810180805281018080528101808052810180805281018080528101808052810180805281018080528101808052810180805281018080528101808052810180805281018080528101808052810180805281018080528101808052810180805281018080528101808052810180805281018080528101808052810180805281018080528101808052810180805281018080528101808052810180805281018080528101808052810180805281018080528101808052810180805281018080528101808052810180805281018080528101808052810180805281018080528101808052810180805281018080528101808052810180805281018080528101808052810180805281018080528101808052810180805281018080528101808052810180805281018080528101808052810180805281018080528101808052810180805281018080528101808052810180805281018080528101808052810180805281018080528101808052810180805281018080528101808052810180805281018080528101808052810180805281018080528101808052810180805281018080528101808052810180805281018080528101808052810180805281018080528101808052810180805281018080528101808052810180805281018080528101808052810180805281018080528101808052810180805281018080528101808052810180805281018080528101808052810180805281018080528101808052810180805281018080528101808052810180805281018080528101808052810180805281018080528101808052810180805281018080528101808052810180805281018080528101808052810180805281018080528101808052810180805281018080528101808052810180805281018080528101808052810180805281018080528101808052810180805281018080528101808052810180805281018080528101808052810180805281018080528101808052810180805281018080528101808052810180805281018080528101808052810180805281018080528101808052810180805281018080528101808052810180805281018080528101808052810180805281018080528101808052810180805281018080528101808052810180805281018080528101808052810180805281018080528101808052810180805281018080528101808052810180805281018080528101808052810180805281018080528101808052810180805281018080528101808052810180805281018080528101808052810180805281018080528101808052810180805281018080528101808052810180805281018080528101808052810180805281018080528101808052810180805281018080528101808052810180805281018080528101808052810180805281018080528101808052810180805281018080528101808052810180805281018080528101808052810180805281018080528101808052810180805281018080528101808052810180805281018080528101808052810180805281018080528101808052810180805281018080528101808052810180805281018080528101808052810180805281018080528101808052810180805281018080528101808052810180805281018080528101808052810180805281018080528101808052810180805281018080528101808052810180805281018080528101808052810180805281018080528101808052810180805281018080528101808052810180805281018080528101808052810180805281018080528101808052810180805281018080528101808052810180805281018080528101808052810180805281018080528101808052810180805281018080528101808052810180805281018080528101808052810180805281018080528101808052810180805281018080528101808052810180805281018080528101808052810180805281018080528101808052810180805281018080528101808052810180805281018080528101808052810180805281018080528101808052810180805281018080528101808052810180805281018080528101808052810180805281018080528101808052810180805281018080528101808052810180805281018080528101808052810180805281018080528101808052810180805281018080528101808052810180805281018080528101808052810180805281018080528101808052810180805281018080528101808052810180805281018080528101808052810180805281018080528101808052810180805281018080528101808052810180805281018080528101808052810180805281018080528101808052810180805281018080528101808052810180805281018080528101808052810180805281018080528101808052810180805281018080528101808052810180805281018080528101808052810180805281018080528101808052810180805281018080528101808052810180805281018080528101808052810180805281018080528101808052810180805281018080528101808052810180805281018080528101808052810180805281018080528101808052810180805281018080528101808052810180805281018080528101808052810180805281018080528101808052810180805281018080528101808052810180805281018080528101808052810180805281018080528101808052810180805281018080528101808052810180805281018080528101808052810180805281018080528101808052810180805281018080528101808052810180805281018080528101808052810180805281018080528101808052810180805281018080528101808052810180805281018080528101808052810180805281018080528101808052810180805281018080528101808052810180805281018080528101808052810180805281018080528101808052810180805281018080528101808052810180805281018080528101808052810180805281018080528101808052810180805281018080528101808052810180805281018080528101808052810180805281018080528101808052810180805281018080528101808052810180805281018080528101808052810180805281018080528101808052810180805281018080528101808052810180805281018080528101808052810180805281018080528101808052810180805281018080528101808052810180805281018080528101808052810180805281018080528101808052810180805281018080528101808052810180805281018080528101808052810180805281018080528101808052810180805281018080528101808052810180805281018080528101808052810180805281018080528101808052810180805281018080528101808052810180805281018080528101808052810180805281018080528101808052810180805281018080528101808052810180805281018080528101808052810180805281018080528101808052810180805281018080528101808052810180805281018080528101808052810180805281018080528101808052810180805281018080528101808052810180805281018080528101808052810180805281018080528101808052810180805281018080528101808052810180805281018080528101808052810180805281018080528101808052810180805281018080528101808052810180805281018080528101808052810180805281018080528101808052810180805281018080528101808052810180805281018080528101808052810180805281018080528101808052810180805281018080528101808052810180805281018080528101808052810180805281018080528101808052810180805281018080528101808052810180805281018080528101808052810180805281018080528101808052810180805281018080528101808052810180805281018080528101808052810180805281018080528101808052810180805281018080528101808052810180805281018080528101808052810180805281018080528101808052810180805281018080528101808052810180805281018080528101808052810180805281018080528101808052810180805281018080528101808052810180805281018080528101808052810180805281018080528101",
                "nonce" : "0x00",
                "storage" : {
                }
            }
        },
        "transaction" : {
            "data" : [
                "0x0000000000000000000000000000000000000000000000000000000000000000",
                "0x0000000000000000000000000000000000000000000000000000000000000001",
                "0x0000000000000000000000000000000000000000000000000000000000000010",
                "0x0000000000000000000000000000000000000000000000000000000000000020"
            ],
            "gasLimit" : [
                "0x3b9aca00"
            ],
            "gasPrice" : "0x01",
            "nonce" : "0x00",
            "secretKey" : "0x45a915e4d060149eb4365960e6a7a45f334393093061116b197e3240065ff2d8",
            "sender" : "0xa94f5374fce5edbc8e2a8697c15331677e6ebf0b",
            "to" : "0xbe7c43a580000000000000000000000000000001",
            "value" : [
                "0x00"
            ]
        }
    }
}